:100000000C94F50D0C94120E0C94120E0C94120E0E
:100010000C94120E0C94120E0C94120E0C94120EE0
:100020000C94120E0C94120E0C9463190C947C1EFA
:100030000C94C5280C94120E0C94120E0C94120EF3
:100040000C94120E0C94120E0C94120E0C94120EB0
:100050000C94120E0C943C1A0C94120E0C94120E6A
:100060000C94120E0C94120E0C94120E0C94120E90
:100070000C94120E0C94120E0C94120E0C94120E80
:100080000C94120E0C94120E0C94120E0C94120E70
:100090000C94120E0C94120E0C94120E0C94120E60
:1000A0000C94120E0C94120E0C94120E0501098081
:1000B000A101850319012AB700150126B700950192
:1000C00075108100C0050C0901A101850419012AE0
:1000D000A002150126A002950175108100C00660DE
:1000E000FF0961A1010962150026FF00952075082E
:1000F00081020963150026FF00952075089102C052
:1001000005010906A101050719E029E715002501E8
:10011000950875018102950175088101050719008F
:1001200029FF150026FF00950675088100050819AE
:10013000012905950575019102950175039101C08D
:1001400000000000000000000000000000000000AF
:10015000000000000000000000000000000000009F
:10016000000000000000000000000000000000008F
:10017000000000808000000000008040402020201F
:1001800020101010100804020101020C3040800001
:10019000000000000000F8F8F8F8000000000080FF
:1001A00080000000000000000000000000000000CF
:1001B00000000000000000000000000000808080BF
:1001C000000000000000000000000000000000002F
:1001D000000000000000000000000000000000001F
:1001E000000000000000000000000000000000000F
:1001F000001EE10000010102028180800000808079
:10020000000000000000000000800030300000010D
:100210000102040810204387070100B8BCBE9F5F9D
:100220005F4F4C20202020101010100808080808EC
:10023000040404040402020202010101010000009E
:1002400000000000000000000000000000000000AE
:10025000000000000000000000000000000000009E
:10026000000000000000000000000000000000008E
:1002700080700C030000180605989984437C414166
:100280004040202122121111110908080808040415
:1002900008081010101010110F013D7CFCFCFCFC34
:1002A000FC3C0C000000000000000000000000000A
:1002B000000000000000000000000000000000003E
:1002C000000000000000000000000000000000002E
:1002D00000808080808040404040402020202020BE
:1002E0001010101010080808080804040404040280
:1002F00003020201010101010100000000000000F1
:1003000000000000000000000000000000000000ED
:1003100000000000000000000000000000010303D6
:1003200000000000000000000000000000000000CD
:1003300000000000000000000000000000000000BD
:1003400000000000000000000000000000000000AD
:10035000000000000000000000000000000000009D
:10036000000000000000000000000000000000008D
:10037000000000808000000000008040402020201D
:1003800020101010100804020101020C30408000FF
:10039000000000000000000000000000000000005D
:1003A000000000000000000000000000000000004D
:1003B00000000000000000000000000000808080BD
:1003C000000000000000000000000000000000002D
:1003D000000000000000000000000000000000001D
:1003E000000000000000000000000000000000000D
:1003F000001EE100000101020201000000008080F7
:10040000000000000000000000800030300000010B
:10041000E11A06093135018A7C0000808080804025
:100420004040402020202010101010080808080824
:10043000040404040402020202010101010000009C
:1004400000000000000000000000000000000000AC
:10045000000000000000000000000000000000009C
:10046000000000000000000000000000000000008C
:1004700080700C030000000000000000000001017B
:100480000040A021221211111109080808080404D3
:100490000404040402020201010101000000000042
:1004A000000000000000000000000000000000004C
:1004B000000000000000000000000000000000003C
:1004C000000000000000000000000000000000002C
:1004D00000808080808040404040402020202020BC
:1004E000101010101008080808080404040404027E
:1004F000037A7A7979797939310202040408080893
:1005000088888780000000000000000000000000D4
:1005100000000000000000000000000000000000DB
:1005200000000000000000000000000000000000CB
:1005300000000000000000000000000000000000BB
:1005400000000000000000000000000000000000AB
:10055000000000000000000000000000000000009B
:10056000000000000000000000000000000000008B
:10057000000000808000000000008040402020201B
:1005800020101010100804020101020C30408000FD
:10059000000000000000000000000000000000005B
:1005A000000000000000000000000000000000004B
:1005B00000000000000000000000000000808080BB
:1005C000000000000000000000000000000000002B
:1005D000000000000000000000000000000000001B
:1005E000000000000000000000000000000000000B
:1005F000001EE10000010102028180800000808075
:100600000000000000000000008000303000000109
:10061000E11A06093135018A7C0000808080804023
:100620004040402020202010101010080808080822
:10063000040404040402020202010101010000009A
:1006400000000000000000000000000000000000AA
:10065000000000000000000000000000000000009A
:10066000000000000000000000000000000000008A
:1006700080700C030000180605989984C37C4141E2
:100680004040202122121111110908080808040411
:100690000404040402020201010101000000000040
:1006A000000000000000000000000000000000004A
:1006B000000000000000000000000000000000003A
:1006C000000000000000000000000000000000002A
:1006D00000808080808040404040402020202020BA
:1006E000101010101008080808080404040404027C
:1006F00003020201010101010100000000000000ED
:1007000000000000000000000000000000000000E9
:1007100000000000000000000000000000000000D9
:1007200000000000000000000000000000000000C9
:1007300000000000000000000000000000000000B9
:1007400000000000000000000000000000000000A9
:100750000000000000000000000000000000000099
:100760000000000000000000000000000000000089
:100770000000000000000000000080404020202019
:1007800020101010101008080404040830408000E5
:100790000000000000000000000000000000000059
:1007A0000000000000000000000000000000000049
:1007B00000000000000000000000000000808080B9
:1007C0000000000000000000000000000000000029
:1007D0000000000000000000000000000000000019
:1007E0000000000000000000000000000000000009
:1007F00000186482020202020201000000008080F0
:100800000000000000000000008000303000C0C187
:10081000C1C2040810204080000000808080804019
:100820004040402020202010101010080808080820
:100830000404040404020202020101010100000098
:1008400000000000000000000000000000000000A8
:100850000000000000000000000000000000000098
:100860000000000000000000000000000000000088
:10087000C0380403000000000000000C0C0C0D0147
:100880000040A021221211111109080808080404CF
:1008900008081010101010110F01010000000000D6
:1008A0000000000000000000000000000000000048
:1008B0000000000000000000000000000000000038
:1008C0000000000000000000000000000000000028
:1008D00000808080808040404040402020202020B8
:1008E000101010101008080808080404040404027A
:1008F00003020201010101010102020404080808C7
:1009000008080700000000000000000000000000D0
:1009100000000000000000000000000000000000D7
:1009200000000000000000000000000000000000C7
:1009300000000000000000000000000000000000B7
:1009400000000000000000000000000000000000A7
:100950000000000000000000000000000000000097
:100960000000000000000000000000000000000087
:100970000000000000000000000080404020202017
:1009800020101010101008080404040830408000E3
:100990000000000000000000000000000000000057
:1009A0000000000000000000000000000000000047
:1009B00000000000000000000000000000808080B7
:1009C0000000000000000000000000000000000027
:1009D0000000000000000000000000000000000017
:1009E0000000000000000000000000000000000007
:1009F00000186482020202020201000000008080EE
:100A00000000000000000000008000303000C0C185
:100A1000C1C2040810204080000000808080804017
:100A2000404040202020201010101008080808081E
:100A30000404040404020202020101010100000096
:100A400000000000000000000000000000000000A6
:100A50000000000000000000000000000000000096
:100A60000000000000000000000000000000000086
:100A7000C0380403000000000000000C0C0C0D0145
:100A80000040A021221211111109080808080404CD
:100A900008081010101010110F01010000000000D4
:100AA0000000000000000000000000000000000046
:100AB0000000000000000000000000000000000036
:100AC0000000000000000000000000000000000026
:100AD00000808080808040404040402020202020B6
:100AE0001010101010080808080804040404040278
:100AF00003020201010101010102020404080808C5
:100B000008080700000000000000000000000000CE
:100B100000000000000000000000000000000000D5
:100B200000000000000000000000000000000000C5
:100B300000000000000000000000000000000000B5
:100B400000000000000000000000000000000000A5
:100B50000000000000000000000000000000000095
:100B60000000000000000000000000000000000085
:100B700000000000000000000000008080404040B5
:100B80004020202020100804020204186080000089
:100B90000000000000000000000000000000000055
:100BA0000000000000000000000000000000000045
:100BB00000000000000000000000000000808080B5
:100BC0000000000000000000000000000000000025
:100BD0000000000000000000000000000000000015
:100BE0000000000000000000000000000000000005
:100BF000003CC201010202040402010000000000E6
:100C00000000000000000000000000606000818221
:100C10008284081020408000000000808080804096
:100C2000404040202020201010101008080808081C
:100C30000404040404020202020101010100000094
:100C400000000000000000000000000000000000A4
:100C50000000000000000000000000000000000094
:100C60000000000000000000000000000000000084
:100C700080701906000000000000001818181B03FF
:100C80000040A02224141212120B080808080505BF
:100C900009091010101010110F01010000000000D0
:100CA0000000000000000000000000000000000044
:100CB0000000000000000000000000000000000034
:100CC0000000000000000000000000000000000024
:100CD00000808080808040404040402020202020B4
:100CE0001010101010080808080804040404040276
:100CF00003020201010101010102020404080808C3
:100D000008080700000000000000000000000000CC
:100D100000000000000000000000000000000000D3
:100D200000000000000000000000000000000000C3
:100D300000000000000000000000000000000000B3
:100D400000000000000000000000000000000000A3
:100D50000000000000000000000000000000000093
:100D60000000000000000000000000000000000083
:100D70000000008080000000000080404020202013
:100D800020101010100804020101020C30408000F5
:100D90000000000000000000000000000000000053
:100DA0000000000000000000000000000000000043
:100DB00000000000000000000000000000808080B3
:100DC0000000000000000000000000000000000023
:100DD0000000000000000000000000000000000013
:100DE0000000000000000000000000000000000003
:100DF000001EE100000101020201000000008080ED
:100E00000000000000000000008000303000C0C181
:100E1000C1C2040810204080000000808080804013
:100E2000404040202020201010101008080808081A
:100E30000404040404020202020101010100000092
:100E400000000000000000000000000000000000A2
:100E50000000000000000000000000000000000092
:100E60000000000000000000000000000000000082
:100E700080700C03000000000000000C0C0C0D0141
:100E80000040A021221211111109080808080404C9
:100E900008081010101010110F01010000000000D0
:100EA0000000000000000000000000000000000042
:100EB0000000000000000000000000000000000032
:100EC0000000000000000000000000000000000022
:100ED00000808080808040404040402020202020B2
:100EE0001010101010080808080804040404040274
:100EF00003020201010101010102020404080808C1
:100F000008080700000000000000000000000000CA
:100F100000000000000000000000000000000000D1
:100F200000000000000000000000000000000000C1
:100F300000000000000000000000000000000000B1
:100F400000000000000000000000000000000000A1
:100F50000000000000000000000000000000000091
:100F60000000000000000000000000000000000081
:100F70000000000000000000000080404020202011
:100F800020101010100808040202020438408000EB
:100F90000000000000000000000000000000000051
:100FA0000000000000000000000000000000000041
:100FB00000000000000000000000000000808080B1
:100FC0000000000000000000000000000000000021
:100FD0000000000000000000000000000000000011
:100FE0000000000000000000000000000000000001
:100FF000001CE201010202020201000000008080E8
:101000000000000000000000008000303000C0C17F
:10101000C1C2040810204080000000808080804011
:101020004040402020202010101010080808080818
:101030000404040404020202020101010100000090
:1010400000000000000000000000000000000000A0
:101050000000000000000000000000000000000090
:101060000000000000000000000000000000000080
:1010700080700C03000000000000000C0C0C0D013F
:101080000040A021221211111109080808080404C7
:1010900008081010101010110F01010000000000CE
:1010A0000000000000000000000000000000000040
:1010B0000000000000000000000000000000000030
:1010C0000000000000000000000000000000000020
:1010D00000808080808040404040402020202020B0
:1010E0001010101010080808080804040404040272
:1010F00003020201010101010102020404080808BF
:1011000008080700000000000000000000000000C8
:1011100000000000000000000000000000000000CF
:1011200000000000000000000000000000000000BF
:1011300000000000000000000000000000000000AF
:1011400000DA0281FFD9F1DB20A4A62EAF00A0C0F7
:10115000D30000A1C8D30000AED580A81F408D14D5
:101160002000FD377A585A000004E6D6B446020043
:10117000210116000000742FE5A3E006F1020D5DC9
:10118000003D8889C65436C3174FE4F9EDF70320B4
:10119000E29BFEDA579C20CC482B47973FA461B9CD
:1011A0007367C1E8B4107B843FF58B8F728257FB65
:1011B000B36978C69CDEF25E3758D0456A9F3970B5
:1011C000E1B7D47233F4D2B6F44D7D1936C4C08A77
:1011D0001D91EA1DEC7F869A4F247D24E7FB2CF2BB
:1011E0008E305D2796C51D9F315C8EBA773D2AA84B
:1011F000B7329DF1805F88841C92E3FE828046BEF8
:101200003F1DFAFD93147CF77EF1D1D69B6F3F8290
:10121000F31959BED4E37CD0DB925E7F6F3F8DAC77
:1012200045355DAEB6CD4B5F80149036844CED0BEA
:1012300035B71A7E3E4676FE91A6B7FF78623859DA
:1012400026A50ED0EA63E2C46291B05F41C0B5A1A9
:10125000EA179AF0899C98D54155D55A8BC8AD1A92
:1012600092AB40C82A7BA6CB842FFC9AFE498821EA
:10127000DA8DB1F618248E42F35D3FC4430051333A
:1012800058FB9187550F351BB9818D31881C8735E7
:10129000551127B848ED6040A90E43C3E4B63D0898
:1012A0005D4914F48DB0CF835741274D7FCBFFA903
:1012B000DFFAA5301E3BD5A95277082D48BB181080
:1012C000C0BE14F60F3AD058BF9AAD39D31D348B37
:1012D000B4575D51160968945C7D691E18B9E6B56E
:1012E000CA7F4DBE4C15B17007CA9C4E6F2FE86285
:1012F000EE9E19C40B83786A6F50CFCB46EB5BDD53
:10130000F29E0DA5AF6AF94116573ABE915C658110
:101310006D103066AE9AA442E56397E8BF23E5B648
:101320009D576339BD1A0018D210C4C2EF4234F978
:101330001485EAC1D39C95C4A8F0A240A684F69176
:1013400031EBA9180C265AE2BE7463E5626D6D326A
:10135000F52AA0F83539BC3425C6B91684E2239E97
:10136000FD3B2DB0A8703BA9E7840F8202DA48A7A5
:1013700042791374BC471492AA4345E58241DD6764
:1013800018ECFB9226E1E7863F082EE2651100008B
:101390000000C2B1541CCE582F610001A904F20D07
:1013A0000000447F712CB1C467FB02000000000400
:1013B000595A00AF00AE29003A003B003C003D0006
:1013C0003E003F0040004100420043004400450011
:1013D00068000000000035001E001F0020002100F2
:1013E0002200230024002500260027002D002E00C7
:1013F00000002A004A002B0014001A000800150003
:1014000017001C0018000C00120013002F00300001
:1014100031004D00AE00390004001600070009003D
:101420000A000B000D000E000F0033003400000016
:1014300028004B00A800E10000001D001B00060072
:101440001900050011001000360037003800E500D3
:1014500052004E000000E000E300E2000000000047
:1014600000002C00000000000000E60021525000A7
:1014700051004F00000029003A003B003C003D00B5
:101480003E003F0040004100420043004400450050
:1014900068000000000035001E001F002000210031
:1014A0002200230024002500260027002D002E0006
:1014B00000002A004A002B0014001A000800150042
:1014C00017001C0018000C00120013002F00300041
:1014D00031004D00AE00390004001600070009007D
:1014E0000A000B000D000E000F0033003400000056
:1014F00028004B00A800E10000001D001B000600B2
:101500001900050011001000360037003800E50012
:1015100052004E000000E000E300E2000000000086
:1015200000002C00000000000000E600E400500075
:1015300051004F000000AB00AC00A900AA00AB00B6
:10154000AC00A900AA0009025B00030100A0FA098F
:1015500004000001030101000921110100012240E2
:1015600000070581030800010904010002030000CF
:101570000009211101000122220007058203200039
:101580000107050303200001090402000103000014
:101590000009211101000122320007058403200007
:1015A0000112010002000000088680565600010169
:1015B0000203011C037600690061006C003A0066BA
:1015C0000036003400630032006200330063000024
:1015D000000E03730074006F00720072006500005B
:1015E0000012035300540048004C004D0020006BD3
:1015F0000062000000040309040000000000000075
:1016000000000000000000000000000000000000DA
:10161000000000000000000000000000007E0F003D
:10162000D4FFFFFFC70000007800000000000000AA
:10163000002A2B280000000000000000000000002D
:101640000000000029000000002C1E34202122246C
:10165000342627252E362D3738271E1F20212223FA
:101660002425263333362E37381F0405060708098C
:101670000A0B0C0D0E0F1011121314151617181952
:101680001A1B1C1D2F3130232D35040506070809B0
:101690000A0B0C0D0E0F1011121314151617181932
:1016A0001A1B1C1D2F3130354C07087F0807003EE0
:1016B0005B4F5B3E003E6B4F6B3E001C3E7C3E1C16
:1016C00000183C7E3C18001C577D571C001C5E7F98
:1016D0005E1C0000183C180000FFE7C3E7FF000095
:1016E0001824180000FFE7DBE7FF0030483A060E39
:1016F00000262979292600407F05050700407F053F
:10170000253F005A3CE73C5A007F3E1C1C0800085D
:101710001C1C3E7F0014227F2214005F5F005F5F6D
:101720000006097F017F00006689956A006060609D
:1017300060600094A2FFA2940008047E04080010D8
:10174000207E20100008082A1C0800081C2A08080F
:10175000001E10101010000C1E0C1E0C0030383E25
:10176000383000060E3E0E060000000000000000AB
:10177000005F000000000700070000147F147F14C2
:1017800000242A7F2A120023130864620036495677
:10179000205000000807030000001C224100000048
:1017A00041221C00002A1C7F1C2A0008083E080851
:1017B0000000807030000008080808080000006081
:1017C0006000002010080402003E5149453E000020
:1017D000427F4000007249494946002141494D334A
:1017E000001814127F10002745454539003C4A492E
:1017F000493100412111090700364949493600465F
:101800004949291E00000014000000004034000077
:101810000000081422410014141414140000412282
:101820001408000201590906003E415D594E007C32
:101830001211127C007F49494936003E4141412244
:10184000007F4141413E007F49494941007F0909EC
:101850000901003E41415173007F0808087F0000E4
:10186000417F4100002040413F01007F0814224198
:10187000007F40404040007F021C027F007F040840
:10188000107F003E4141413E007F09090906003EAC
:101890004151215E007F09192946002649494932F4
:1018A0000003017F0103003F4040403F001F2040F4
:1018B000201F003F4038403F0063140814630003BA
:1018C00004780403006159494D4300007F414141C0
:1018D00000020408102000004141417F0004020181
:1018E0000204004040404040000003070800002080
:1018F00054547840007F28444438003844444428F5
:1019000000384444287F0038545454180000087E9E
:1019100009020018A4A49C78007F08040478000041
:10192000447D4000002040403D00007F10284400DE
:101930000000417F4000007C04780478007C0804AB
:10194000047800384444443800FC18242418001853
:10195000242418FC007C080404080048545454242F
:101960000004043F4424003C4040207C001C2040F4
:10197000201C003C4030403C004428102844004CCF
:101980009090907C004464544C4400000836410020
:10199000000000770000000041360800000201024C
:1019A0000402003C2623263C00000000000000400A
:1019B0004040F0F8F8FF38FFF8F83FF8F8FF38FF3C
:1019C000F8F8F040404000000000000080C0C0C0B7
:1019D000800000C0C08000000080C0C000C0C00007
:1019E0000080C0C00000000000C0C0C0C0C000C077
:1019F000C000000000000000000000000000000027
:101A000000000000000000000000000000000000D6
:101A100000000000000000000000000000000000C6
:101A20000000000000000000C0F0F8FC3E1E0601AF
:101A30000000007F4141417F007F4141417F000024
:101A400080C0E07E5B4F5BFEC00000C000DCD7DEE4
:101A5000DEDED7DC00C00000000000000000000057
:101A6000000000000000000000000000000000492D
:101A70004949FFFFFFFFE0DFBFBF00BFBFDFE0FF5F
:101A8000FFFFFF49494900000000001F3F6060E080
:101A9000BF1F007F7F071E381E077F7F007F7F0EDE
:101AA0001F3B716000000000007F7F0C0C0C007E6B
:101AB0007E007F7E0303007F7E03037E7E03037F21
:101AC0007E000F3E703C063C703E0F00327B494961
:101AD0003F7E007F7E0303001E3F69696F26000082
:101AE0000000000000000000030F1F3F3C78706002
:101AF0000000007F4141417F007F4141417F003034
:101B00007B7F7830202030787F3B0003000F7F0FF1
:101B10000F0F7F0F00030000000000000000000016
:101B200000000000000000000000000000000001B4
:101B30000101070F0F7F0F7F0F0F7E0F0F7F0F7FAA
:101B40000F0F07010101000000000000000000006D
:101B50000101000000000000000000000000000083
:101B60000000000000000000000000000000000075
:101B70000000000000000000000000000000000065
:101B80000000000000000000000000000000000055
:101B90000000000000000000000000000000000045
:101BA0000000000000000000000000000000000035
:101BB0000000000000000000000000000000000025
:101BC0000000000000000000000000000000000015
:101BD0000000000000000000000000000000000005
:101BE0000000000000000000000011241FBECFEF25
:101BF000DAE0DEBFCDBF11E0A0E0B1E0E6EAFBE64F
:101C000002C005900D92A239B107D9F725E0A2E9EB
:101C1000B1E001C01D92A030B207E1F70E94EC28AC
:101C20000C9484350C940000CF93DF934091FE0414
:101C30005091FF044E5F52409A013E5F2130324086
:101C4000C0F020E032E0241B350B6091FC02709163
:101C5000FD02FC01CA01240F351FC1E0D0E082174C
:101C6000930750F07093FD026093FC02DF91CF91D7
:101C7000089520E032E0E9CF4491DC01A250BD4F4D
:101C80005C91451781F04C93AC01A5E056954795C2
:101C9000AA95E1F7DE0102C0AA0FBB1F4A95E2F741
:101CA000AD016A2B752B01963196D9CF482F209123
:101CB000F1029091B80257E0291302C080E0089524
:101CC00030E0529FF001539FF00D1124E754FD4F77
:101CD0008181681306C08081481303C0858181110A
:101CE000EECF2F5F3F4F2770E7CFE8EDF0E0808128
:101CF0008E7F80831092E2001092DA001092E10051
:101D0000A0EEB0E08C9181608C9380818F7780838E
:101D100019BCA7EDB0E08C918E7F8C9380818F7E73
:101D200080831092A10208952091E4003091E50093
:101D300095E6A9012091EC00822F817020FF06C05A
:101D40008091E80080FF06C080E008952091E800BF
:101D500022FD1AC08091AE02882389F0853089F077
:101D60008091EB0085FD0FC02091E4003091E500EB
:101D700042175307F9F29150E1F684E0089582E0AA
:101D8000089583E0089581E008958091B00287FF6F
:101D900013C08091E80082FF06C08091E8008B7735
:101DA0008093E80004C08091AE028111F2CF0895C3
:101DB0008091AE028823D9F38091E80080FFF8CFAC
:101DC0008091E8008E77ECCF982F9093E900242F34
:101DD000762F50E0891731F07091EC002091ED00E2
:101DE0005091F00021FD07C09F5F973071F78093FD
:101DF000E90081E008953091EB003E7F3093EB00E5
:101E00003091ED003D7F3093ED003091EB0031607B
:101E10003093EB007093EC002093ED005093F000B2
:101E20002091EE0027FDE0CF80E00895B0E0A0E033
:101E3000ECE1FFE00C94C631C8EDD0E088818F7EE4
:101E40008883E7EDF0E080818160808384E082BF59
:101E500081E08093A10288818E7F888302EE10E06A
:101E6000F80110821092DA0081EEC82ED12CF60112
:101E7000108288818F7788838881806888838881B1
:101E80008F7D888319BC1092AE021092AF0210921F
:101E9000AD021092AC0290EEE92EF12CF701808198
:101EA0008B7F808388818160888342E060E080E06E
:101EB0000E94E40EF60180818E7F8083F80180818C
:101EC00081608083808188608083F70180818E7F3C
:101ED0008083888180618883CDB7DEB7E8E00C9489
:101EE000E231FC018091B6029091B7028617970704
:101EF000A0F06115710529F49091E8009E77909308
:101F0000E80090E06115710551F4911108C08091CD
:101F1000E80082FF34C080E00895BC01F2CF8091D8
:101F2000AE028823C1F18530C1F18091E80083FDC4
:101F300030C08091E80082FDEACF8091E80080FF08
:101F4000E1CF8091F3002091F200382F61157105E7
:101F500019F02830310558F091E02830310509F0AA
:101F600090E02091E8002E772093E800CBCF81917C
:101F70008093F100615071092F5F3F4FE7CF80914F
:101F8000AE02882341F0853041F08091E80083FF64
:101F9000BECF81E0089582E0089583E0089508951A
:101FA0008091A302089587E797E7909301088093B3
:101FB000000888E19AE00FB6F894A8958093600035
:101FC0000FBE90936000FFCF2FB7F89460919D02F1
:101FD00070919E0280919F029091A0022FBF089560
:101FE0009C01FC0132969FEF80E04191461751F031
:101FF0009F3F19F4411101C0982F8F5F8630A9F7D8
:102000009F3F09F40895290F311D97FD3A95F90175
:1020100062830895A3E0B0E0E0E1F0E10C94CC31FC
:1020200020919A0230919B0228173907A1F09093D2
:102030009B0280939A02E0919802F0919902309766
:1020400051F024E029839B838A830680F781E02D69
:10205000CE01019609952396E2E00C94E831A3E0C5
:10206000B0E0E5E3F0E10C94CC31209196023091A0
:10207000970228173907A1F0909397028093960250
:10208000E0919802F0919902309751F023E0298372
:102090009B838A830680F781E02DCE010196099506
:1020A0002396E2E00C94E831E0919802F0919902D5
:1020B000309729F00190F081E02D0995089580E096
:1020C000089580E008959091F10192FF06C0282FB5
:1020D00028712830F9F4877F846093FF06C0282F89
:1020E00028712831F1F4877E84612091F20120FF6C
:1020F00006C0382F38713830D9F4877F816021FFCE
:1021000006C0282F28712831D1F4877E816194FD83
:10211000877E0895282F24712430F9F68B7F8860FC
:10212000DCCF282F2471243101F78B7E8861DDCF2D
:10213000382F3171313019F78E7F8860E0CF282F2A
:102140002171213121F78E7E8861E1CF823891059E
:10215000B9F1B0F48133910509F47DC048F48932B6
:10216000910509F46DC08A32910509F47BC0089588
:102170008533910509F45FC08933910509F108950C
:10218000833E9105D9F138F4803E910529F1823ED4
:10219000910579F10895863E9105D9F1873E910523
:1021A00009F43EC0843E910541F52091F20121FFE2
:1021B00024C08091F10184FD19C087EE90E008955C
:1021C0002091F101237009F05AC02091F20123FF00
:1021D00014C089E290E008952091F10120FD38C0FB
:1021E0003091F20130FF09C024FF43C090E080E04D
:1021F00008952091F10122FDF7CF08952091F1017A
:1022000022FD3AC03091F20130FD39C024FFF5CFF4
:10221000EDCF2091F10123FFF0CF24FDE7CFCDCF0B
:102220002091F10123FD2EC03091F20131FFEECF5C
:1022300084EE90E008952091F10125FFDECFC9CF13
:102240002091F10125FD21C02091F20123FFD5CF7E
:1022500089E390E0D2CF2091F10126FFCECF8AE230
:1022600090E008952091F10126FFC7CF81E390E02F
:10227000089583EE90E0089582EE90E0089580EE58
:1022800090E0089586EE90E0089585E390E008954B
:102290001F93CF93DF930E94A610EC01C11580E538
:1022A000D807F0F5C11580E4D80708F09CC0C03EFF
:1022B000D10520F5CD3CD10508F082C0C83AD10542
:1022C00078F4C53AD10508F073C0C130D10519F1D1
:1022D000209709F1C430D105F0F4D0E0C0E01BC074
:1022E000C33CD105D0F7C85AD0E0CC0FDD1FCA5D82
:1022F000DE4F0990D881C02DD4640DC0C11580E295
:10230000D80708F0D1C0C11581E0D80708F05AC03D
:10231000C83ED10510F7CE01DF91CF911F910895EE
:10232000C03682E5D80718F5C03482E5D80708F032
:102330006BC0C03282E5D80708F05FC0C11582E5E6
:10234000D80708F497C02C2F2695269580E2289F61
:10235000900111248C2F8370C1E0D0E002C0CC0F1B
:10236000DD1F8A95E2F7C22BD32BDD68D4CFC03AAC
:1023700082E5D80760F4C03882E5D80708F459C070
:10238000CF71D0E0DC2FCC27C46FD06AC4CFC03C63
:1023900082E5D80708F462C0C03E82E5D80708F09D
:1023A0009CCFDC2FCC27CC27DF71C06FD06AB3CF96
:1023B000C55AD0E0CD5DDE4FC881D0E0D064ABCF50
:1023C000D065A9CF8D2F0E946310182FCE019927B9
:1023D0000E94A610C12FD0E0DC2FCC27CC27DF71C4
:1023E000C82BD92B98CFCE0199270E94A610CC27B5
:1023F000DF70C82BD92BD06A8ECFCF71D0E0DC2F05
:10240000CC27C16FD06A87CF2C2F269526952770B1
:1024100080E2289F900111248C2F8370C1E0D0E0CE
:1024200002C0CC0FDD1F8A95E2F7C22BD32BDC68EC
:1024300072CF2C2F26952695277080E2289F900139
:1024400011248C2F8370C1E0D0E002C0CC0FDD1FBF
:102450008A95E2F7C22BD32BDA685DCF8C2F8F7170
:102460000E946310C82FD0E0DC2FCC27CC27DF716F
:10247000D06251CF8C2F8F710E94631055E0D6959A
:10248000C7955A95E1F7CF70D0E0DC2FCC27282FE5
:1024900030E084FF05C044E0220F331F4A95E1F786
:1024A000C22BD32BD06937CF8D2F8F710E94631031
:1024B000182FCE0199270E94A610C12FD0E0DC2F43
:1024C000CC27CC27DF71C82BD92BD2CF8091DD014F
:1024D000882331F01092DD011092DC011092DB01B3
:1024E000089580959091DA0198239093DA010895E8
:1024F0001092D0011092CF011092CE0108959091C8
:10250000CD01292F282321F0809589238093CD01A7
:1025100008958091F1029091B802981301C0089536
:102520008F5F8770FACFA82FA77023E096958795C5
:102530002A95E1F7FC01EE0FFF1FE80FF91FE60FE8
:10254000F71F50E040E080E0219130E00A2E02C009
:10255000369527950A94E2F721703327042E01C09F
:10256000220F0A94EAF7822B4F5F5F4F43305105E9
:1025700059F70895903FB9F0963070F4803198F48F
:1025800040E1949F9001112462EA71E0820F932F41
:10259000911D0E94931208959C5F923020F46FE980
:1025A00071E090E0F6CF80E00895262F277091E04B
:1025B00001C0990F2A95EAF723E0769567952A9549
:1025C000E1F7FB01EE0FFF1FE60FF71FE40FF51F0A
:1025D00050E040E0682F70E08191DF0111979B018E
:1025E000042E02C0369527950A94E2F721702195B2
:1025F0002827292328272C934F5F5F4F433051050D
:1026000059F70895282F862F903F71F0963068F47F
:10261000203150F430E1939FB0011124620F711DFD
:1026200042EA51E00E94D51208959C5F9230E0F793
:10263000622F70E04FE951E0F5CF8093F0010895EB
:102640009091F00121E030E0F90101C0EE0F8A9590
:10265000EAF7D90102C0AA0FBB1F6A95E2F7EA2B7D
:1026600001C0220F4A95EAF7892F8E23E81305C08F
:10267000292B822F0E941D13089520952923F9CF1D
:1026800021E030E001C0220F8A95EAF72095809181
:10269000F00182230E941D1308959091D00180952E
:1026A00089238093D001282F277069F4891759F066
:1026B0009091F20192FF07C08695869586950E94BB
:1026C00040130E947812089521E030E001C0220FEB
:1026D0008A95EAF78091F001822B0E941D130895DC
:1026E0008093EF0108959C013A9521153F4150F5E3
:1026F000FC01EE27F170BC0166277270AC01442723
:1027000054709C012227387094FF0EC080E1EF2B9B
:1027100009F480E0672B09F08062452B09F08064A2
:10272000232B89F08068089581E0EF2B09F480E085
:10273000672B09F08260452B09F08460232B19F088
:102740008860089580E00895809161028F31D8F407
:1027500080919D0190E0019665E070E00E94FF315C
:1027600080939D0124E030E0A901481B590BCA0168
:10277000982F8827990F805C984F0E94140E089517
:1027800080E495E0FACF8832D8F320919C0130E0C4
:102790002F5F3F4F2170332720939C0181E090E011
:1027A000821B930B982F8827990F805C9E4FE5CF53
:1027B000CF93DF93C091FE04D091FF048A30C1F41F
:1027C0002091F502CE018E5F9240622F70E00E9450
:1027D000A831281B822F66E00E94F331C82FC15018
:1027E00018F4DF91CF91089580E20E94D813F7CFBB
:1027F0008D30E9F4CE5FD2402091F502622F70E077
:10280000CE010E94A831281B822F9E01280F311D66
:102810002115324018F080E0D0E0C0E0C80FD11D93
:10282000C250DD4FD093FF04C093FE04DACF96E090
:10283000FE01A6EFB2E001900D929A95E1F7803E7D
:1028400008F458C086E0FE0111928A95E9F7C0911C
:10285000FE04D091FF0446E050E0BE0186EF92E016
:102860000E948C329E012E5F3240892B41F1C901BA
:1028700045E0969587954A95E1F741E050E0BA0129
:1028800002C0660F771F8A95E2F7CB016091FC02C8
:102890007091FD02862B972BB9016B5F7F4FE5E0AE
:1028A00076956795EA95E1F702C0440F551F6A9542
:1028B000E2F7842B952B9093FD028093FC022A5F14
:1028C0003F4F4091F502642F70E0C9010E94A8318A
:1028D000481B463010F4240F311D211572E03707D4
:1028E00010F030E020E022503D4F3093FF04209361
:1028F000FE0477CFF6E08F9FB00111246755794E23
:1029000046E050E0CE010E948332A1CF0F931F9387
:10291000CF93DF938B01EA019091AE02943061F581
:102920008093E9008FEF9091E800815095FD06C0FB
:1029300095ED9A95F1F700008111F5CF8091E800AF
:1029400085FF1AC00E94940E811111C08091E80089
:1029500085FD06C08091E8008E778093E800F2CF75
:10296000F80181918F018093F100219779F780918F
:10297000E8008E778093E800DF91CF911F910F914F
:10298000089543E050E0BC0184E00E94861408955D
:10299000CF93DF93EC0148E050E0BC0181E00E945E
:1029A000861488E0FE01A4EAB2E001900D928A95B7
:1029B000E1F7DF91CF910895CF93DF93C9EBD1E099
:1029C00060E0CE010E9450352196C11584E0D80701
:1029D000B9F7DF91CF9108950F931F93CF93DF93B2
:1029E000142F022F823020F5623010F598E0899F75
:1029F000E001112484E0689FB0011124C60FD71FA5
:102A0000C755DE4F82E090E0442311F090E080E073
:102A1000632F8C0F9D1F0E94503583E090E011239F
:102A200011F081E090E0602F8C0F9D1F0E945035C7
:102A3000DF91CF911F910F9108951F93CF93DF9353
:102A4000122F8230E0F46630D0F44031C0F490E2CE
:102A5000699FE001112450E0440F551FC40FD51F9A
:102A600090EC899FC00DD11D1124632FCE01899652
:102A70000E945035612FCE018A960E945035DF9119
:102A8000CF911F910895B0E0A0E0E9E4F5E10C9446
:102A9000C031A0909402B090950281E090E09093B4
:102AA00095028093940286E3C82E85E1D82E96EB9A
:102AB000E92E93E1F92EC0E0470110E014C0F301C4
:102AC000259134914D2F612F8C2F0E941D1582E08E
:102AD000680E711CDF5FD03191F780E2880E911C87
:102AE0001F5F163019F03401D0E0E9CF8601D0E045
:102AF000F8012591349141E06D2F8C2F0E94EC1448
:102B0000F80132962591349140E06D2F8C2F0E9470
:102B1000EC140C5F1F4FD13051F488E0C80ED11C6B
:102B200080ECE80EF11CC13021F0C1E0C5CFD1E04E
:102B3000DFCFB0929502A0929402CDB7DEB7EEE05F
:102B40000C94DC31CF93C82F6FEF811161E185E2E6
:102B500090E00E9450356FEFC11168EB86E290E083
:102B60000E9450356FEFC11160EC87E290E00E9447
:102B70005035CF91089580E00E94A21560E088E270
:102B800090E00E9450350E9443150E94DC1481E0C1
:102B90000E94A2150895FF920F931F93CF93DF9386
:102BA000F42E823070F5623060F528E0829F80015B
:102BB000112434E0639FB0011124060F171F07553D
:102BC0001E4F82E090E0442311F090E080E0800FFF
:102BD000911F0E943235C82FD0E0DC2FCC2783E034
:102BE00090E0FF2011F081E090E0800F911F0E94A3
:102BF00032359E01282BC901CDB7DEB7E5E00C9434
:102C0000E53190E080E0F8CF0F931F93CF93DF93EF
:102C1000823030F5663020F5403110F520E2629FB9
:102C20008001112450E0440F551F040F151F30EC94
:102C3000839F000D111D1124C80189960E94323511
:102C4000C82FD0E0DC2FCC27C8018A960E943235ED
:102C50009E01282BC901DF91CF911F910F910895FB
:102C600090E080E0F8CF2091550230915602232B5E
:102C7000D9F4703F39F4603FB9F4809157029091D4
:102C800058020895763048F4603170F4823060F470
:102C9000462F672F0E94041608957D3F41F462304D
:102CA00018F441E0823050F090E080E008957C3FDD
:102CB000D9F76230C8F78230B8F740E00E94CB15F0
:102CC0000895CF92DF92FF920F931F93CF93DF93DC
:102CD0006C010091F0018091EF01082BC1E0D0E080
:102CE00010E0FC2EC8010C2E02C0959587950A9421
:102CF000E2F780FD0FC0CD2B51F4F12C8F2DDF9129
:102D0000CF911F910F91FF90DF90CF900895D0E069
:102D1000C0E0E7CFB6018C2F0E9433160E94481105
:102D2000019749F3EBCFCF93DF93EC010E9461163B
:102D3000BE010E9433160E944811DF91CF91089581
:102D4000FC0124812223C1F0808191810E9493168D
:102D500092959F70963091F058F4925F9F709230E8
:102D600058F4803F19F030F4883E30F481E0089543
:102D70009A5FF4CF843FD1F380E00895883EB0F3AA
:102D8000813FD1F7F3CFA6E0B0E0E9ECF6E10C9497
:102D9000CB3149835A8349815A819923A1F0222357
:102DA00091F0CA010E946116182F682F89819A81BB
:102DB0000E94021369817A81812F0E943316269620
:102DC000E3E00C94E731CA010E94BA12182FF2CF47
:102DD00085E290E00E943235813189F486E290E00C
:102DE0000E943235883B59F487E290E00E943235E8
:102DF00091E0803C09F090E0892F8170089580E097
:102E0000FCCFB0E0A0E0E7E0F7E10C94C6316C0144
:102E10007B0164E670E088E70E94C2308C01E60125
:102E2000EC0CFD1C17FD0BC0FE01849164E670E004
:102E30000E942E318C012196CE15DF0599F70E9454
:102E4000A43181E00115110509F080E0CDB7DEB7AE
:102E5000E8E00C94E23180919202909193029111FA
:102E600003C091E089270895882369F062E070E04B
:102E700084EB93E10E940117811103C080919202BB
:102E800008951092920280919202EBCFCF93C0915D
:102E90009202809193028823D1F00E94E40F605A3D
:102EA00075418F4F9F4F60938E0270938F02809376
:102EB000900290939102C11108C062E070E082EB31
:102EC00093E10E940117811105C0C09192028C2FDD
:102ED000CF91089581E080939202F7CF2F923F9295
:102EE0005F926F927F928F929F92AF92BF92CF929A
:102EF000DF92EF92FF920F931F93CF93DF93809116
:102F00009302882309F48FC08EEF92E09093FF0420
:102F10008093FE0480916102882309F496C00E9488
:102F2000461740915D0250915E0260915F02709180
:102F300060022FB7F89480919D0290919E02A0911B
:102F40009F02B091A0022FBF841B950BA60BB70B5D
:102F5000893C9105A105B10560F00E94E40F6093E2
:102F60005D0270935E0280935F02909360020E9404
:102F7000A4130E94E40F6093590270935A02809345
:102F80005B0290935C028091F50264E0869FC00131
:102F900011248115A2E09A0714F090E080E082509D
:102FA0009D4F9093FF048093FE04809161021F92D5
:102FB0008F9389E191E09F938F93C2E6D2E0DF93F4
:102FC000CF930E94A03209900020E9F721970F903B
:102FD0000F900F900F900F900F9002E612E00C17D9
:102FE0001D0708F47BC08091FC029091FD02892BA3
:102FF00009F07AC0809192028823A9F00E94E40F20
:1030000000918E0210918F022091900230919102D6
:10301000601B710B820B930B6F3F7F4F8F4F9F474E
:1030200010F40E942B17DF91CF911F910F91FF9009
:10303000EF90DF90CF90BF90AF909F908F907F9058
:103040006F905F903F902F9008954091590250915A
:103050005A0260915B0270915C022FB7F8948091E4
:103060009D0290919E02A0919F02B091A0022FBF5D
:10307000841B950BA60BB70B813C9742A940B10569
:1030800018F00E942B177FCF40915D0250915E0295
:1030900060915F02709160022FB7F89480919D0259
:1030A00090919E02A0919F02B091A0022FBF841B1D
:1030B000950BA60BB70B893C9105A105B10508F44A
:1030C00062CF0E94E40F60935D0270935E02809372
:1030D0005F02909360020E94A41355CFD8018D9196
:1030E0008D010E94D8137BCF80919302882309F42D
:1030F00081CF80918D0281117DCF0E944617209152
:10310000FC023091FD022115310509F473CF80E0F6
:1031100041E050E0082F10E01A01082E02C0220CF6
:10312000331C0A94E2F7B10162237323672B11F475
:103130008F5FF0CF90918C0290FF95C0880F880F21
:10314000880F80930B0110920E01895F80930C0110
:1031500083E080930F0124E630E047E050E069E02F
:1031600071E088E70E945C31892B09F043CFA80108
:1031700025E0440F551F2A95E1F780918C0280FFCE
:1031800084C0ECE6F2E080E2EF0119928A95E9F75B
:10319000AEE7B1E00AE711E082E8C82E81E0D82E60
:1031A00097E0592E772473948D91F80121918F0126
:1031B000240F352F311D22503D4FE82FF0E0E45908
:1031C000FD4F90E080E0652C681A872C082E01C026
:1031D000880C0A94EAF77901A12CE701B9907E01E5
:1031E000B820662D6A196770962E062E000C770B94
:1031F000DB2D01C0DD0F9A94EAF771956195710995
:103200006770772701C0B6946A95EAF7BD2A608196
:10321000962E9B289082A39468E0A612DECF01969A
:1032200031968830910579F6CA16DB0609F0BCCFD5
:1032300004E610E020E230E04CE652E060E488E78B
:103240000E947D31892B09F0D5CEE101C095D09542
:103250008091FC029091FD02C823D923D093FD02F6
:10326000C093FC02C7CE8295880F807680930B01B5
:103270009801369527953695279520930E01815E06
:1032800080930C0120930F0166CF42505D4F04E6FE
:1032900010E020E230E0D2CF9091F20192FB2227A1
:1032A00020F9281779F080FB92F99093F201609150
:1032B000F1017091F20184E090E00E946E3582E0AD
:1032C0000E944D1308951F920F920FB60F92112472
:1032D0002F933F934F935F936F937F938F939F931E
:1032E000AF93BF93EF93FF938091E10082FF09C0FA
:1032F0008091E20082FF05C08091E1008B7F809386
:10330000E1008091DA0080FF24C08091D80080FF26
:1033100020C08091DA008E7F8093DA008091D900FE
:1033200080FF9DC080E189BD82E189BD09B400FEB6
:10333000FDCF81E08093AE028091A102811109C08E
:103340000E94750E0E94160F8091E20084608093A7
:10335000E2008091E10080FF17C08091E20080FFD1
:1033600013C08091E2008E7F8093E2008091E200A2
:1033700080618093E2008091D80080628093D800C1
:1033800019BC85E08093AE028091E10084FF2BC0E0
:103390008091E20084FF27C080E189BD82E189BD80
:1033A00089B5982F917080FFFBCF8091D8008F7DD9
:1033B0008093D8008091E1008F7E8093E10080911E
:1033C000E2008F7E8093E2008091E2008160809332
:1033D000E2008091AF02882309F447C084E0809323
:1033E000AE028091AE028091E10083FF27C0809100
:1033F000E20083FF23C08091E100877F8093E1009A
:1034000082E08093AE021092AF028091E1008E7F45
:103410008093E1008091E2008E7F8093E2008091B2
:10342000E20080618093E20042E060E080E00E9480
:10343000E40E8091F00088608093F000FF91EF919E
:10344000BF91AF919F918F917F916F915F914F91BC
:103450003F912F910F900FBE0F901F90189519BCA0
:103460001092AE021092A10274CF8091E30087FD0A
:1034700093E09093AE02B5CF78941F921FB61F923F
:1034800011248F939F93AF93BF9380919D0290914E
:103490009E02A0919F02B091A0020196A11DB11DB4
:1034A00080939D0290939E02A0939F02B093A002EE
:1034B000BF91AF919F918F911F901FBE1F90189544
:1034C0009C014FB7F89480919D0290919E02A0912B
:1034D0009F02B091A0024FBF821B930B08952FB79C
:1034E000F89480919D0290919E02A0919F02B091CC
:1034F000A0022FBF0895B0E0A0E0E1E8FAE10C944B
:10350000BF3190E080E0712CC1E0D0E0C12CD12C23
:103510007601C3943FEE832E31E0932EA2E6B1E014
:1035200050E040E02D91E22FE295EF70F0E02F7037
:10353000BE0102C0660F771F2A95E2F79B01BE010C
:10354000042E02C0660F771F0A94E2F768237923DE
:10355000042E02C0759567950A94E2F732A166239E
:1035600009F475C0232B22A34F5F5F4F44305105F0
:10357000C9F67AE17A95F1F700C0B701A601082EE5
:1035800004C0440F551F661F771F0A94D2F75A01D3
:103590009A0120953095E3EEF1E00CE511E0612C05
:1035A00041915191D8015D908D01A52DA295AF70EB
:1035B000B0E090966C9170E0A52DAF7002C075954B
:1035C0006795AA95E2F7DF01129760FD43C0BA0143
:1035D0006A297B2911967C936E936D917C91461795
:1035E000570711F0662463948E169F06C9F6762855
:1035F00001968031910509F091CF772079F181E032
:103600008093E2010E946F1A9093E1018093E001A0
:103610008091E0019091E1010E94601A059710F1FC
:103620004CE050E063EE71E089E492E00E948C325D
:10363000892BF1F08CE0E3EEF1E0A9E4B2E0019037
:103640000D928A95E1F781E01092E2010CC020957D
:10365000232389CFBA0162237323BCCF8091E20177
:103660008111D6CF80E0CDB7DEB7EFE00C94DB312F
:1036700080E0EACF9091DD01292F282361F0809529
:1036800089238093DD01882339F00E946F1A90937B
:10369000DC018093DB01089590E080E0F8CF809119
:1036A000DA019091D901892B809394018091DD01F9
:1036B000882319F10E946F1A2091DB013091DC01FF
:1036C000821B930B8838934110F00E946612809100
:1036D00094019091DD01892B8093940120E086E98B
:1036E00091E0FC013191CF0131112F5FF1E08C3974
:1036F0009F07B9F721110E94661248E050E061ED82
:1037000071E084E991E00E948C32892BA9F088E075
:10371000E4E9F1E0A1EDB1E001900D928A95E1F7C5
:10372000E0919802F0919902309731F00280F38194
:10373000E02D84E991E0099508951092DA01E6E917
:10374000F1E086E0DF011D928A95E9F790E080E0E4
:103750000E942F1090E080E00E940A101092D90180
:103760000E944F1B0895AAE2B0E0E9EBFBE10C9444
:10377000CB3180EB92E02091F100DC012D93CD0163
:10378000B2E0883B9B07B9F78091B102833009F41E
:1037900072C0B8F4813009F449C0823009F4B3C072
:1037A0008091E80083FF96C28091B0029091B102AF
:1037B0009A3008F08FC2E92FF0E0EA57FA4C0C94E7
:1037C00054328A3009F48EC08B3009F471C08930CC
:1037D00039F78091B002813219F78091B40290914B
:1037E000B502009711F00297D9F68091E800877F23
:1037F0008093E8008091E80082FF38C09091F30048
:103800008091F200029731F48091F100813011F043
:10381000863021F48091F1008093A3028091E8002A
:103820008B778093E8000E94C50EBACF8091B002DA
:10383000813A09F0B5CF8091E800877F8093E80056
:103840008091B4029091B502892B61F468E084EA1A
:1038500092E070E00E94710F8091E8008B77809376
:10386000E8009ECF60E090E080E0F3CF8091AE0270
:103870008111C0CF95CF8091B002813A09F090CFED
:103880008091B4029091B502892B09F089CF809183
:10389000E800877F8093E8008091E80080FFFCCFFC
:1038A000809110018093F1008091E8008E77B9CF6C
:1038B0008091B002813209F073CF8091B40290916F
:1038C000B502892B09F06CCF8091E800877F809347
:1038D000E8000E94C50E8091B202809310010E9400
:1038E0009D1B5ECF8091B002813209F059CF80914B
:1038F000E800877F8093E8000E94C50E8091B302A4
:103900008093A2024DCF8091B002813A09F048CF56
:103910008091E800877F8093E8008091E80080FF35
:10392000FCCF8091A202BECF803899F0823809F096
:10393000D1C18091B4028F70873008F0CBC18093E1
:10394000E9008091EB0085FB882780F91092E9005F
:1039500006C08091AC029091AD029111826090916D
:10396000E800977F9093E8008093F1001092F100B7
:103970008091E8008E77AAC1882309F498C182302B
:1039800009F0A8C18091B20281119BC18091B4025B
:103990008F702FEF280F263008F09CC18093E9002C
:1039A0002091EB0020FF8DC1933031F48091EB002A
:1039B00080628093EB0085C19091EB0090619093C1
:1039C000EB0021E030E001C0220F8A95EAF7209356
:1039D000EA001092EA008091EB008860EACF811142
:1039E00079C11091B2021F778091E3008078812B1A
:1039F0008093E3008091E800877F8093E8000E9435
:103A0000C50E8091E80080FFFCCF8091E3008068C4
:103A10008093E30082E0111183E08093AE025AC1EB
:103A20008058823008F056C12091B2023091B30222
:103A30002C3DE3E03E07A1F583E08A838AE2898397
:103A40004FB7F894DE01139620E03EE051E2E32FF9
:103A5000F0E050935700E49120FF03C0E295EF702F
:103A60003F5FEF708E2F90E0EA30C0F0C7968D93E5
:103A70009D932F5F243159F74FBF8091E800877FD6
:103A80008093E8006AE270E0CE0101960E94710F17
:103A90008091E8008B778093E8001CC1C096E7CF47
:103AA0008091B4029091B502432F552743305105C0
:103AB00009F44AC078F54130510509F485C08BE519
:103AC00090E0E6E4F5E14230510509F003C12091B0
:103AD000E800277F2093E8002091B6023091B702DA
:103AE0008217930708F49C0140E02115310509F085
:103AF00070C041116EC08091E80082FDC9CF8091F5
:103B0000AE02882329F2853019F28091E80083FF04
:103B1000F2CFBECF4132510509F447C042325105C0
:103B200009F0D8C08330910508F0D4C0FC01EE0F35
:103B3000FF1FEB57FE4F0190F081E02D8E579E4FF7
:103B4000DC018C9190E01DC0332721303105E9F074
:103B50002115310579F022303105F9F02330310596
:103B600009F0B8C0E3EBF5E1E4918E2F90E0E3EBD0
:103B7000F5E107C0E5EFF5E1E4918E2F90E0E5EF88
:103B8000F5E1009709F4A6C0A2CFE1EEF5E1E491DA
:103B90008E2F90E0E1EEF5E1F4CFE1EDF5E1E49177
:103BA0008E2F90E0E1EDF5E1ECCF8330910508F048
:103BB00091C0880F991FFC01E557FE4F0190F081DD
:103BC000E02D89E090E083CF82E190E0E1EAF5E149
:103BD0007ECF8091AE02882309F45ACF853009F454
:103BE00057CF8091E80083FD53CF8091E80082FD9C
:103BF00082CF8091E80080FF78CF9091F300809190
:103C0000F2002115310519F08830910550F041E09E
:103C1000089709F040E08091E8008E778093E800F3
:103C200064CF44914093F1003196215031090196BF
:103C3000E8CF803809F04EC08091E800877F8093FC
:103C4000E8008091AF028093F10092CE811142C0D2
:103C50001091B2021230F0F58091E800877F8093D6
:103C6000E8001093AF020E94C50E112311F084E00A
:103C700005C08091E30087FDFACF81E08093AE021A
:103C800042E061EC81E00E94E40E42E261EC84E0FB
:103C90000E94E40E42E261EC82E00E94E40E42E205
:103CA00060EC83E00E94E40E8091AE0213C080912C
:103CB000B202813079F481E0933009F080E08093A2
:103CC000AD021092E9008091E800877F8093E800C0
:103CD0000E94C50E8091E80083FF0AC08091E80031
:103CE000877F8093E8008091EB0080628093EB00F7
:103CF000AA96E3E00C94E7311F920F920FB60F9251
:103D000011242F933F934F935F936F937F938F93E0
:103D10009F93AF93BF93CF93DF93EF93FF93D09194
:103D2000E900DF708091EC00C82FC17080FDC0E811
:103D30001092E9008091F000877F8093F0007894E2
:103D40000E94B31B1092E9008091F000886080937C
:103D5000F000CD2BCF70C093E900FF91EF91DF9180
:103D6000CF91BF91AF919F918F917F916F915F9113
:103D70004F913F912F910F900FBE0F901F9018956C
:103D80000E949D1B2FEF84E39CE0215080409040D7
:103D9000E1F700C0000088E19AE00FB6F894A8951A
:103DA000809360000FBE90936000FFCF882341F0A6
:103DB00080959091D90189238093D9010E944F1B4E
:103DC0000895882339F09091D901982B9093D901C7
:103DD0000E944F1B0895882321F00E9471120E94B7
:103DE0004F1B0895882339F09091DA01982B909316
:103DF000DA010E944F1B0895882391F19CEF980FE0
:103E0000913A80F4E6E9F1E02CE931E091918913EF
:103E100003C0DF0111971C922E173F07B9F70E94CC
:103E20004F1B089590E2980F983050F4877091E0FE
:103E300001C0990F8A95EAF7892F0E947112EFCF7E
:103E40009BE5980F933028F490E080E00E942F10BB
:103E50000895885A8B3120F490E080E00E940A1087
:103E60000895CF93C82F8823B1F08CEF8C0F813A3F
:103E700000F5E6E9F1E08CE991E0DF012D91C21750
:103E800061F08A179B07D1F76C2F84E991E00E94BB
:103E9000F00F0E944F1BCF9108952191C21303C0D0
:103EA000DF0111971C928E179F07B9F70E944F1BD5
:103EB000EBCF80E28C0F883068F4C77021E030E0EF
:103EC00001C0220FCA95EAF78091DA01822B809314
:103ED000DA01DFCFEBE5EC0FE33040F4F0E0ED5D2D
:103EE000FE4F808190E00E942F10D5CFC85ACB3171
:103EF00090F6EC2FF0E0EE0FFF1FEA5DFE4F8081A1
:103F000091810E940A10C7CF1F93CF93DF93182F80
:103F1000D0E0C0E0893311F4C0E5D0E0812F0E94E9
:103F2000311F209739F4812F0E94FC1EDF91CF9121
:103F30001F9108958FE99FE00197F1F700C00000FD
:103F40002197EFCF0F931F93CF93DF93C62FD42FDB
:103F5000022FFC0185818823A9F06093F4020E945E
:103F60006F1A9093F3028093F202C77081E001C050
:103F7000880FCA95EAF70E94F21EDF91CF911F9138
:103F80000F9108958091F402681332C08091F2027B
:103F90009091F3020E94601A883C910548F510E266
:103FA0001D0FCD17B9F080E28C0F883040F4C77038
:103FB00081E001C0880FCA95EAF70E94EB1E183015
:103FC00048F481E09D2F977001C0880F9A95EAF719
:103FD0000E94F21E802F0E94841F183070F6D77046
:103FE00081E001C0880FDA95EAF70E94EB1EC5CF89
:103FF000C77081E001C0880FCA95EAF7F6CFB0E03C
:10400000A0E0E5E0F0E20C94C431EC018AE0A82ED7
:104010002881222309F48FC02130C9F599818A8132
:10402000913021F422960E94841F05C0923029F419
:1040300022960E94311F2196EBCF933021F42296D5
:104040000E94FC1EF8CF943011F02196F4CF2296F6
:1040500030E020E0AE014F5F5F4F8053990B8A3014
:10406000910550F02150310930F38FE99FE001971D
:10407000F1F700C00000F6CFA29EB001A39E700D24
:1040800011249C01260F371F8981EA01E3CFE22F1B
:10409000F0E0E75DF94EB490822F8695869586957F
:1040A00090E0FC01E75EF94EE4902770F12C022EBF
:1040B00002C0F594E7940A94E2F731E0E322FF248A
:1040C000FC01E75FF94EC490D12C022E02C0D594BA
:1040D000C7940A94E2F731E0C322DD24FC01E750E3
:1040E000FA4E049110E002C0159507952A95E2F763
:1040F00001701127E114F10419F081EE0E94311FC3
:10410000C114D10419F086EE0E94311F8B2D0E943C
:10411000841FC114D10419F086EE0E94FC1EE11424
:10412000F10419F081EE0E94FC1E0115110509F43D
:1041300082CF8CE278CFCDB7DEB7EAE00C94E031E5
:104140009091F20192FF10C098E0899F9001112494
:10415000622B6093D0010E9464130E946F1A9093A7
:10416000CF018093CE0108950E9464130895ABE1BE
:10417000B0E0EDEBF0E20C94CA314E8B5F8B688FB0
:10418000798F8A8F9B8F092F91111092D9011D8AE7
:1041900086E0FE017696DE011F9601900D928A95CB
:1041A000E1F71A8D8091F20182FF1CC00E946F1A04
:1041B0002091CE013091CF01821B930B883893411F
:1041C00020F08091D00182FF7FC00E946F1A209161
:1041D000DB013091DC01821B930B8838934110F096
:1041E0000E946612112349F021E04F8558896989A0
:1041F0007A89812F902F0E94C3161B8B0C8B87E02E
:10420000FE013F96DE01189601900D928A95E1F726
:10421000CE0108960E943A2781110CC087E0FE016A
:104220003896DE01119601900D928A95E1F78C8502
:1042300081110BC017E08091F1029091B8028913AF
:1042400031C06B96E4E00C94E6312091B80230E086
:10425000C9010196877099274091F1024817190604
:1042600099F097E0929FD001939FB00D1124A7542D
:10427000BD4FFE01319601900D929A95E1F7809322
:10428000B8020E948912D6CF0E949D1B1092B802DC
:104290001092F10287E0E6ECF1E0DF011D928A95D1
:1042A000E9F7C8CF819FC001112487549D4F0E9418
:1042B0003A27882331F28091F10290E001968770CD
:1042C00099278093F102B7CF82E00E944D137DCFF2
:1042D000A6E0B0E0EEE6F1E20C94CA318C019093D6
:1042E000580280935702011580E21807C0F4802F0E
:1042F0000E94FC1EC8010E9473139801205E3109C0
:104300002830310518F00115110531F40E94EB1E1B
:104310002696E4E00C94E6310E94D61EF9CF80EF99
:1043200089838A830E946F1A8160682F9C838B83A4
:1043300049815A817C8181E090E00E94B720E8CFDA
:10434000A6E0B0E0E6EAF1E20C94CA318C01909369
:10435000580280935702011580E21807C0F4C80183
:104360000E9473139801205E31092830310518F03E
:104370000115110549F40E94F21E802F0E94311F81
:104380002696E4E00C94E6310E94E11EF6CF80EF21
:1043900089838A830E946F1A8160682F9C838B8334
:1043A00049815A817C8181E091E00E94B720E8CF69
:1043B000A4E0B0E0EEEDF1E20C94C2317C01FC012E
:1043C0008481882309F408C121E040815181628100
:1043D000738195810E94C3168C01F70125812223E8
:1043E00009F4DAC09A9581159F4408F066C0C801A7
:1043F0009927AC01445051094432510518F08B976C
:104400000E9780F4E0910602F0E0EE0FFF1FE55FEB
:10441000FD4F808191818F3F3FE7930719F001960F
:1044200091838083C80197578038910508F09CC418
:10443000D02E4FE0401708F4C0C08FEF93E00E94E9
:1044400032358111BAC009EB11E0D1103FC0198299
:104450001A821B821C8299249A9468018FEFC81AD1
:10446000D80AC8010E94323589831A82882309F448
:10447000A4C0813009F08AC0580192E0A90EB11C95
:10448000C6010E943235C82E8A83882309F495C05C
:10449000C5010E943235D82E8FEF8C0D833020F568
:1044A0005801E3E0AE0EB11CDB82DD2021F0CE012D
:1044B00001960E94FF1F8501D0CF90E080E00F3F62
:1044C000110511F008F095CFC80193CF011554E004
:1044D000150709F472C0C8010E943235811101C06C
:1044E000DA940F5F1F4FB1CF8BEF8C0D833040F507
:1044F000C8010396DB825C01DD20E9F25801F4E09B
:10450000AF0EB11C0E9432358C838823A1F20B813F
:104510001C8101302FEF120710F0102F002736E01A
:10452000C31651F047E0C41619F0C8010E94A0213B
:10453000C8010E946821BFCFC8010E94A021BBCF43
:1045400054E0C512B8CF580184E0A80EB11CC801D0
:1045500003960E943235DD2081F1882371F181506C
:10456000990B989E9001999E300D1124ED2DE150EC
:10457000FF0BCF01820F931F019708F49CCFEFE947
:10458000FFE03197F1F700C00000F6CFCE010196B1
:104590000E94FF1F56018FCFFC01E851FC47E73016
:1045A000F10508F0CAC3E057FA4C0C94543226E2E5
:1045B00041EE61EEC7010E94A21F8091D001877079
:1045C00059F0F7018581882339F08091F20182FF4B
:1045D00003C082E00E944D132496ECE00C94DE317F
:1045E00027E245EE65EEE6CF26E241EE60EEE2CF51
:1045F00027E245EE64EEDECF26E241EE62EEDACF50
:1046000027E245EE66EED6CF28E241E0EBCF80917F
:10461000F10181608093F10195C08091F201886081
:104620008093F2018FC08091F1018260F3CF80917D
:10463000F1018460EFCF8091F1018860EBCF809130
:10464000F2018160EDCF8091F2018260E9CF80912B
:10465000F1018061DFCF8091F1018062DBCF809139
:10466000F1018064D7CF0E949D1B8091F101806889
:10467000D1CF8091F1018C60CDCF8091F201836028
:10468000CFCF8091F1018E7FC5CF8091F201877FDE
:10469000C7CF8091F1018D7FBDCF8091F1018B7FDC
:1046A000B9CF8091F101877FB5CF8091F2018E7FE4
:1046B000B7CF8091F2018D7FB3CF8091F1018F7ED2
:1046C000A9CF8091F1018F7DA5CF8091F1018F7BE2
:1046D000A1CF0E949D1B8091F1018F779BCF80918C
:1046E000F101837F97CF8091F2018C7F99CF8091E8
:1046F000F10182FB992790F921E0922790FB82F942
:1047000090FB83F987CF8091F201982F909591705B
:104710008E7F892B90FB81F983CF9091F101892FB6
:104720008F7B96FF806476CF0E949D1B9091F10154
:10473000892F97FB87F980586DCF61E08EE090E07C
:104740000E9450356091F1017091F20184E090E097
:104750000E946E350E949D1B30CF60E0EFCF90919C
:10476000F101892F8F7E94FF806154CF9091F101E8
:10477000892F8E7F90FF81604DCF9091F201892F1C
:10478000877F93FF88604CCF85E3E0C207373CE723
:10479000130709F465C008374CE7140709F467C02C
:1047A000222381F003305CE7150709F487C008F085
:1047B0006AC001159CE7190709F473C001301C4752
:1047C00009F482C0F701858100811181882309F4F1
:1047D00089C0C8010E946116D82E682FC8010E94A6
:1047E0000213B8018D2D0E9433160E9448118C01CE
:1047F000882EF701C580B680B2943FE0B322809145
:10480000D0018770F1F0AC2CCC20E1F0812F807FBB
:10481000803451F080E2800F883098F0B11004C0ED
:10482000812F807E803269F08091F20182FF09C081
:1048300082E00E944D138091D0018770AA24A39436
:104840008111A12C912E92942FE09222FBE0F91578
:1048500008F4ADC0E92DF0E0E956FA4C0C9454325E
:1048600081E0211108C081E00E94401306C022238C
:1048700009F4A3C282E00E94641343E062E081E095
:104880000E9420139ACE0B35FCE71F0749F10C3527
:104890002CE71207D9F00A351C4709F093CF81E0C5
:1048A0001CC00E949D1B4FEF54E38CE041505040D0
:1048B0008040E1F700C000000E94D30F6FEF7FEF50
:1048C00090E080E00E946E350E94C01E8091F2014F
:1048D00082FB882780F991E089270E944C1972CFCA
:1048E00080E0FBCFC8010E94BA12D82E7ACF212FC8
:1048F0002F70D22E107F19F0D29490EFD922CC20B5
:10490000B9F0DD2069F080E2800F883010F081106E
:1049100009C08091DA01D82AD092DA010E944F1B97
:10492000802F43C08091D901D82AD092D901F6CFE7
:10493000802F0E94FC1EDD20D1F1005E083010F0B7
:10494000811004C08D2D0E94711206C0D0948091F8
:10495000D901D822D092D9010E944F1B28C0312FF3
:104960003F70D32E107F103219F0D29480EFD822EE
:10497000882059F041E0841609F48EC0CC2009F457
:104980009AC0BB2009F447C0CBCF8091F20182FDD1
:104990003EC0CC20B1F1DD2039F08091DA01D82A77
:1049A000D092DA010E944F1B80E00E94311F492DF6
:1049B0004850550B4430510510F40E945410AA2061
:1049C000A9F08091D00180FD11C0F7011582869574
:1049D000869586950E946413C7010E94D821809114
:1049E000D0018695869586950E94401320E0F701B8
:1049F0004081518162817381848195810E94C316B7
:104A0000EBCD80E00E94FC1EDD2089F29BCFCC2004
:104A100071F1B11004C08D2D0E94F21EC8CF51E07B
:104A2000B51211C01091DD018D2D8123D81609F426
:104A3000BECF0E946F1A9093DC018093DB01D12AD4
:104A4000D092DD01B4CF85E0B812B1CF8D2D0E9498
:104A5000F21E8D2D0E943A1B8091CD019D2D982331
:104A6000D91609F4A4CFD82AD092CD01A0CFB11085
:104A70000AC08D2D0E94EB1E8D2D0E943A1B8D2D9C
:104A80000E947F1294CF91E0B91291CF8091DA0108
:104A90008D2109F48CCFEDCFCC2029F0E5E0EB158A
:104AA00008F485CFB8CFF4E0FB1508F480CF8D2D46
:104AB0000E94EB1E7CCFBB20D1F329E3821209C0F8
:104AC0003FEF47EE53E0315040405040E1F700C027
:104AD0000000802F0E94FC1E6ACF812F869586954C
:104AE000837061F0813009F062CFC8019370C1100A
:104AF00002C080E090E00E940A1059CFC801937074
:104B0000C11002C080E090E00E942F1050CF812F92
:104B1000837089F5C1104BCF402F42954695477061
:104B2000440F440F802F8F70042E01C0880F0A9409
:104B3000EAF7202F207104FF07C02FE030E001C00A
:104B4000220F4A95EAF720951695169513701230A4
:104B500069F050F43091EF01113029F0822B83235A
:104B60000E94701324CF832B822BFACF282B8091A5
:104B7000EF018227F5CF8695CC2011F0812F81702F
:104B8000882309F414CF402F429546954770440F6F
:104B9000440F802F8F70042E01C0880F0A94EAF70B
:104BA000202F207104FF07C02FE030E001C0220F4A
:104BB0004A95EAF72095169516951370123069F00C
:104BC00050F43091F001113029F0822B83230E94A0
:104BD0001D13EDCE832B822BFACF282B8091F00171
:104BE0008227F5CF1F70CC2029F0812F0E946413FB
:104BF000802F12CF802F0E94EB1E812F0E94401326
:104C0000D6CE802F92EF8916B1F1981570F0E0EFB3
:104C10008E16D1F0F1EF8F1691F0CC2009F466C01A
:104C2000B1107ECE812F8F712AC023EF821651F1F1
:104C300034EF8312F2CF8091F20182FD2FC0812FD9
:104C40008F71CC20D9F21BC0CC2081F044E04B15F1
:104C500008F4ADCE1F7181E090E0012E01C0880FF5
:104C60000A94EAF79091F0018927B1CF55E05B15DE
:104C700008F49DCEEFCF812F8F71C110BFCF0E945E
:104C8000641395CE80E0CC2009F4A1CF1F7181E0A0
:104C9000012E01C0880F0A94EAF799CFCC20C9F001
:104CA0008091D0018770843041F40E947812812F66
:104CB0008F710E944013A12C7ACE84E08B15D8F31B
:104CC0001F71812F0E94641363E0812F0E94A02036
:104CD000F2CF94E09B1530F40E94781264E0812FAB
:104CE0008F71F4CF81E00E944D13E5CFBB2059F0C6
:104CF000893309F0EECEEFEFF7EE23E0E150F0401C
:104D00002040E1F7E4CE812F8F7178CF0631FCE7A8
:104D10001F0709F03BCD8091DA018A7A91E009F40E
:104D200090E090939E0169E2811165E384E991E04E
:104D30000E94F00F0E944F1B40CC86312CE7920757
:104D400099F580919E0181111FCD89E2E6E9F1E09C
:104D50002CE931E09191891303C0DF0111971C9276
:104D60002E173F07B9F7E6CFF801E851FC47E730C7
:104D7000F10508F418CC1092F402C80190578397FB
:104D800028F684E090E00E943A359093F2018093F7
:104D9000F101F801E150F047E232F10508F037CCBB
:104DA000ED55FA4C0C94543287373CE7930709F4DD
:104DB0005ACD88379C4709F005CD82E055CDCF9379
:104DC000DF938091CC01807F09F04DC08091CB01B1
:104DD000882309F448C0E091F1025091B802C091D3
:104DE000C701D091C6016091C8017091C90147E027
:104DF0005E17C9F18E2F90E0E49FF0011124E75473
:104E0000FD4F2481222391F1489FF001499FF00D2D
:104E10001124DF01A754BD4F11962C9111972C132B
:104E200025C02C912D1322C015962C911597211178
:104E30001DC012962D913C91261B370B283C310545
:104E4000A8F48091CC018F7080618093CC01E154F3
:104E5000FD4F80818F708061808386EC91E00E949D
:104E6000D8210E948912DF91CF910895FC013196DB
:104E7000E770BECFA4E1B0E0E0E4F7E20C94C23109
:104E80008C0186E0F801DE011F9601900D928A9553
:104E9000E1F7F8018481E58096ECA92E91E0B92E26
:104EA0009091CA01911128C0882319F1EE20F1F0E8
:104EB000C8010E94A016F82E8823C1F087E0F801EF
:104EC000D50101900D928A95E1F78091CA01813058
:104ED00031F48091C6019091C7010E9493160E94FF
:104EE000DF268F2D6496ECE00C94DE31C8010E9421
:104EF000D821FF24F394F5CFD080C18082809380A5
:104F0000F090CB012091C8013091C901A401421B4E
:104F1000530BFF2009F4D9C0483C510508F092C05A
:104F20008823F9F29091C7018091CC01282F207F2E
:104F300009F056C0C91214C09091C601D91210C010
:104F4000E11048C08F7080618093CC0186EC91E0C5
:104F50000E94D8218091CC01F8018683F12CC1CF29
:104F6000E11038C06C2D8D2D0E94560E6C2D8D2DAC
:104F70000E94560EE82E8111F1CFDF86C88A8F85F8
:104F800098890E949316292F22952F70243058F467
:104F90009F70223088F0992399F0F8019681907FD4
:104FA00079F4FE2C9ECF2A5F2F70223068F0C80162
:104FB0000E94D821EF2CF5CF992311F0882389F393
:104FC000805E883070F3F3CF803F58F3815F833089
:104FD00070F7E7CF8091CC0181608093CC01BECF88
:104FE000C91207C09091C601D91203C0EE2009F47E
:104FF0008DC0C8010E94A016882309F477CFEE2047
:1050000009F474CF8091CC01803288F02091C601E0
:105010003091C701398728879B868A869091CA017B
:105020009C871D868E87CE0108960E94D82187E036
:10503000F801A6ECB1E001900D928A95E1F70E948B
:10504000DF2657CF9091CC01292F207F51F486EC99
:1050500091E00E94D82187E0F50111928A95E9F745
:105060007DCF882309F43DCF8091C7018C1110C0FA
:105070008091C601D8120CC0E1100AC09683C80105
:105080000E94D82187E0F50111928A95E9F729CF8E
:10509000C8010E94A016882309F428CFEE2009F445
:1050A00025CF8091CC01803210F22091C601309141
:1050B000C7013A8329839C828B829091CA019D8388
:1050C0001E828F83CE010196B0CF483C5105D0F6A9
:1050D000882309F40ECFFE2CEE2009F407CF80912F
:1050E000C7018C1120C08091C601D8121CC08091CC
:1050F000CC0180FD0FC0982F907F61F08683903F98
:1051000031F0982F907F905F8F70892B8683C80134
:105110000E94D82187E0F801A6ECB1E001900D9241
:105120008A95E1F7DECEC8010E94A01681117FCFDB
:105130008091CC0181608093CC01C8010E94D8216C
:10514000D0CEA6E0B0E0E7EAF8E20C94CA310E94C3
:105150006F1A8C018091DE019091DF018017910719
:1051600081F019821A820E946F1A682F49815A8130
:10517000792F80E090E00E94B7201093DF01009328
:10518000DE012696E4E00C94E6311F921FB61F92D2
:1051900011248F939F93AF93BF9380919C028111B1
:1051A00013C080919D0290919E02A0919F02B091A8
:1051B000A0024196A11DB11D80939D0290939E0275
:1051C000A0939F02B093A002BF91AF919F918F9146
:1051D0001F901FBE1F901895CDB7DEB7C654D109DA
:1051E0000FB6F894DEBF0FBECDBF85B7806885BF10
:1051F00085B7806885BF84B7877F84BF0FB6F89472
:10520000A895809160008861809360001092600092
:105210000FBE80E890E00FB6F89480936100909301
:1052200061000FBE81E690E190939301809392011B
:105230000E94750E0E94160F8091E2008460809398
:10524000E20078948091AE028823A1F01091E900E9
:105250001F709091EC00892F817090FD80E8182BD1
:105260001092E9008091E80083FD0E94B31B1F703B
:105270001093E90082E084BD93E095BD9AEF97BD5D
:1052800080936E000E94E816811102C00E94BB1537
:1052900082E08093410248E751E0E6E78E2EE1E0AC
:1052A0009E2EFAE7EF2EF1E0FF2E84019A0161E0D5
:1052B00070E0D9018D919D01E82FE295EF70F0E04B
:1052C000B1A08F706B0101C0CC0C8A95EAF79C2DC0
:1052D00090959B2191A382A18C2982A3F8018191B1
:1052E0008F01E82FE295EF70F0E0B1A08F706B01B5
:1052F00001C0CC0C8A95EAF79C2D90959B2191A337
:1053000082A18C2982A3EA16FB0699F68FE891E028
:105310000197F1F700C000001091410262E472E0D1
:10532000FB018E2F861B811708F4F3C0A2E6B1E0C3
:1053300026E631E0AD0101E010E0FA018191AF0114
:10534000E82FE295EF70F0E091A18F70B80101C0F5
:10535000660F8A95EAF7892F862B81A324173507D4
:1053600061F761E070E09D91E92FE295EF70F0E068
:1053700042A19F708B0102C0000F111F9A95E2F7A6
:10538000C8018095842382A32A173B0761F7ACE507
:10539000B1E042E651E061E070E08D91E82FE295E6
:1053A000EF70F0E011A18F709B0101C0220F8A9570
:1053B000EAF7922F9095912391A382A1822B82A349
:1053C0004A175B0751F7E3EEF1E08FEE91E0A9E4B5
:1053D000B2E0119211921D921D928E179F07C9F78C
:1053E00090E080E00E943A35863E9E4F21F40E9474
:1053F000E816811167C066EE7EEF90E080E00E94C3
:105400006E3560E082E090E00E94503560E083E01D
:1054100090E00E9450351092EF0160E074E184E06A
:1054200090E00E946E3560E086E090E00E9450358A
:105430006FEF87E090E00E94503540E050E0BA0105
:1054400088E090E00E94623560E084E290E00E9493
:10545000503560E087E190E00E94503560E08CE0DC
:1054600090E00E94503560E08DE090E00E94503561
:1054700019821A821B821C821D821E821F8218863C
:1054800048E050E068E170E0CE0101960E944035AE
:1054900040E050E0BA0180E290E00E94623580E096
:1054A0000E94A2150E94BB1540E050E0BA018FE0B7
:1054B00090E00E94623540E050E0BA0183E190E064
:1054C0000E94623582E090E00E9432358093F301C1
:1054D00084E090E00E943A359093F2018093F101CC
:1054E0000E947B1A2FEF36E781E021503040804048
:1054F000E1F700C000000E947B1A8091490280FF02
:1055000031C06FEF7FEF90E080E00E946E350E9427
:10551000D30FDA012D91AD01822F82958F7090E02B
:10552000DC0190968C9190E02F7002C09595879544
:105530002A95E2F78170D4019D914D01292F229582
:105540002F7030E0D90190962C9130E09F7002C00E
:10555000359527959A95E2F790E020FD92E0892B0A
:105560008193DFCE83E090E00E9432350E94701379
:1055700082E080938C0280E88093F5020E94BC3028
:105580006BE070E087E591E10E9401178823E9F163
:1055900080918C0265E070E081FDC6C082E591E1FA
:1055A0000E940117882389F16DE070E080E491E1A9
:1055B0000E940117882349F10E94E40F605A754147
:1055C0008F4F9F4F60938E0270938F028093900253
:1055D00090939102EEEFF2E080E092E0DF018C0127
:1055E0001D9201501040E1F7F093FF04E093FE0498
:1055F0008FEF9FEF9093FD028093FC0281E08093F8
:1056000093028093920210928D0280E091E0909339
:1056100099028093980278E1272E312C8091AE0276
:10562000853089F440E4D42E05E512E050E1E52E02
:1056300062E1F62E8091AE02853009F478C00E94B6
:105640009D1B0E9454100E947B1A34EFA32E31E060
:10565000B32E40E052E0A9E4B2E0F501219131918E
:105660008D919D914E175F0709F49AC0281739074D
:10567000A9F329E4822E22E0922E712CD4010D91FF
:105680001D914D01F501C190D1905F01C016D10669
:1056900009F441C0C026D126612CEE24E394F12CFC
:1056A00055245394C6018E219F21892B51F12296B6
:1056B0006FAE229723967FAE23970E946F1A25968E
:1056C0009FAF8EAF259726965FAE269791E0980103
:1056D0002E213F21232B09F490E027969FAF279797
:1056E00022964FAD229723965FAD239724966FADF8
:1056F000249725967FAD259726968FAD26970E94F5
:10570000B7206394EE0CFF1CF0E16F12CBCFF501D4
:10571000329711830083739406E07012AFCF0E941A
:10572000E40F9924939443C08DE491E139CF8091A3
:10573000AE02843019F10E942B1710929C020FB612
:10574000F894A895209260000FBED092600083B7B5
:10575000817F846083BF83B7816083BF789488959D
:1057600083B78E7F83BF0FB6F894A89580916000B1
:10577000886180936000109260000FBE8091AD023E
:10578000882309F457CF0E947B1AE9E4F2E0819163
:105790009191892B09F0D2C40E171F07C1F74ACF88
:1057A0002817390709F065CF0E94A128912CC090D5
:1057B0000B02D0900C020D2C000CEE08FF0880911B
:1057C000080190E0EBE0F2E021E030E03296821751
:1057D00093070CF0D0C08091070290910802A0912D
:1057E0000902B0910A026FB7F89440909D02509060
:1057F0009E0260909F027090A0026FBF481A590AE3
:105800006A0A7B0A1091080129EC421651046104CE
:10581000710414F18091060290E0019669E170E054
:105820000E94FF3180930602880F991FFC01E55FFB
:10583000FD4F11821082812F183108F087E18F5FB0
:10584000809308010E94E40F60930702709308029E
:105850008093090290930A0232E0C316D104E10456
:10586000F1040CF495C0A0E6BAEEA70196010E94DF
:1058700061326B017C0188EC189F90011124032E8A
:10588000000C440B550B240D351D461D571DA5E07E
:10589000B0E00E9461329B01AC01C701B6010E94D9
:1058A000133229013A0191EF491651046104710440
:1058B0002CF0B0EF4B2E512C612C712C80910202F8
:1058C00090910302A0910402B09105022FB7F894C1
:1058D000C0909D02D0909E02E0909F02F090A002A6
:1058E0002FBFC81AD90AEA0AFB0AA5E6CA16D104CC
:1058F000E104F10484F00E94E40F609302027093CB
:1059000003028093040290930502809161028093C8
:1059100001024092000210910102A0910002A11B1D
:10592000BB0BA70196010E946C3224E630E040E0F8
:1059300050E00E943532120F1093610210E000E037
:1059400062E0862E74E0A72EB12CEDEF7E2E662449
:105950006394FCEF5F2EA3E04A2E8091410218175A
:10596000D8F0002309F4C0C00E94E40F0E946E1713
:105970000E944617BDC040815181052E000C660B68
:10598000770BC40ED51EE61EF71E2F5F3F4F1ECFAE
:10599000412C512C320192CFE12EF12CF701E85825
:1059A000FE4F8081E82FE295EF70F0E0E0A1F0E09B
:1059B0008F7002C0F595E7958A95E2F7E170D701FF
:1059C000AA58BE4F2C91A22FA295AF70B0E090962E
:1059D0008C9190E02F7002C0959587952A95E2F7FB
:1059E00080FD80C080E08E2BD701AE5BBD4FEC9177
:1059F0009E2F9370891709F473C0EE0FEE0FE82BFA
:105A0000EC93EF70F0E0EA59FE4F9701215C3D4FB7
:105A100069018081D9019C91890F8C9320E08430A9
:105A20004CF1F701E35CFD4F80818F5F80830E9422
:105A30006F1A1DAB5EAA682F8FAB98AF49AE6AAEE6
:105A4000412F5CEF792F83E091E00E94B7200E9404
:105A50006F1A1BAF5CAE682F8DAF9EAF4FAE219615
:105A60001FAE2197412F5CEF792F83E090E00E94D9
:105A7000B72021E0F60180818D3F3CF5F701E35C22
:105A8000FD4F8081815080830E946F1A19A77AA6EA
:105A9000682F8BA79CA78DA66EA6412F5DEF792F4F
:105AA00082E091E00E94B7200E946F1A1FA778AA97
:105AB000682F89AB9AAB8BAA1CAA412F5DEF792F77
:105AC00082E090E00E94B72021E0D6018C91082E60
:105AD000000C990BB5010E94FF31F6018083022B67
