:100000000C94F5050C9412060C9412060C9412062E
:100010000C9412060C9412060C9412060C94120600
:100020000C9412060C9412060C9487100C94701702
:100030000C94D4210C9412060C9412060C94120603
:100040000C9412060C9412060C9412060C941206D0
:100050000C9412060C9460110C9412060C94120667
:100060000C9412060C9412060C9412060C941206B0
:100070000C9412060C9412060C9412060C941206A0
:100080000C9412060C9412060C9412060C94120690
:100090000C9412060C9412060C9412060C94120680
:1000A0000C9412060C9412060C9412060501098099
:1000B000A101850319012AB700150126B700950192
:1000C00075108100C0050C0901A101850419012AE0
:1000D000A002150126A002950175108100C00660DE
:1000E000FF0961A1010962150026FF00952075082E
:1000F00081020963150026FF00952075089102C052
:1001000005010906A101050719E029E715002501E8
:10011000950875018102950175088101050719008F
:1001200029FF150026FF00950675088100050819AE
:10013000012905950575019102950175039101C08D
:1001400000DA0281FFD9F1DB20A4A62EAF00A0C007
:10015000D30000A1C8D30000AED580A81F408D14E5
:100160002000FD377A585A000004E6D6B446020053
:10017000210116000000742FE5A3E006F1020D5DD9
:10018000003D8889C65436C3174FE4F9EDF70320C4
:10019000E29BFEDA579C20CC482B47973FA461B9DD
:1001A0007367C1E8B4107B843FF58B8F728257FB75
:1001B000B36978C69CDEF25E3758D0456A9F3970C5
:1001C000E1B7D47233F4D2B6F44D7D1936C4C08A87
:1001D0001D91EA1DEC7F869A4F247D24E7FB2CF2CB
:1001E0008E305D2796C51D9F315C8EBA773D2AA85B
:1001F000B7329DF1805F88841C92E3FE828046BE08
:100200003F1DFAFD93147CF77EF1D1D69B6F3F82A0
:10021000F31959BED4E37CD0DB925E7F6F3F8DAC87
:1002200045355DAEB6CD4B5F80149036844CED0BFA
:1002300035B71A7E3E4676FE91A6B7FF78623859EA
:1002400026A50ED0EA63E2C46291B05F41C0B5A1B9
:10025000EA179AF0899C98D54155D55A8BC8AD1AA2
:1002600092AB40C82A7BA6CB842FFC9AFE498821FA
:10027000DA8DB1F618248E42F35D3FC4430051334A
:1002800058FB9187550F351BB9818D31881C8735F7
:10029000551127B848ED6040A90E43C3E4B63D08A8
:1002A0005D4914F48DB0CF835741274D7FCBFFA913
:1002B000DFFAA5301E3BD5A95277082D48BB181090
:1002C000C0BE14F60F3AD058BF9AAD39D31D348B47
:1002D000B4575D51160968945C7D691E18B9E6B57E
:1002E000CA7F4DBE4C15B17007CA9C4E6F2FE86295
:1002F000EE9E19C40B83786A6F50CFCB46EB5BDD63
:10030000F29E0DA5AF6AF94116573ABE915C658120
:100310006D103066AE9AA442E56397E8BF23E5B658
:100320009D576339BD1A0018D210C4C2EF4234F988
:100330001485EAC1D39C95C4A8F0A240A684F69186
:1003400031EBA9180C265AE2BE7463E5626D6D327A
:10035000F52AA0F83539BC3425C6B91684E2239EA7
:10036000FD3B2DB0A8703BA9E7840F8202DA48A7B5
:1003700042791374BC471492AA4345E58241DD6774
:1003800018ECFB9226E1E7863F082EE2651100009B
:100390000000C2B1541CCE582F610001A904F20D17
:1003A0000000447F712CB1C467FB02000000000410
:1003B000595A00AF00AE29003A003B003C003D0016
:1003C0003E003F0040004100420043004400450021
:1003D00068000000000035001E001F002000210002
:1003E0002200230024002500260027002D002E00D7
:1003F00000002A004A002B0014001A000800150013
:1004000017001C0018000C00120013002F00300011
:1004100031004D00AE00390004001600070009004D
:100420000A000B000D000E000F0033003400000026
:1004300028004B00A800E10000001D001B00060082
:100440001900050011001000360037003800E500E3
:1004500052004E000000E000E300E2000000000057
:1004600000002C00000000000000E60021525000B7
:1004700051004F00000029003A003B003C003D00C5
:100480003E003F0040004100420043004400450060
:1004900068000000000035001E001F002000210041
:1004A0002200230024002500260027002D002E0016
:1004B00000002A004A002B0014001A000800150052
:1004C00017001C0018000C00120013002F00300051
:1004D00031004D00AE00390004001600070009008D
:1004E0000A000B000D000E000F0033003400000066
:1004F00028004B00A800E10000001D001B000600C2
:100500001900050011001000360037003800E50022
:1005100052004E000000E000E300E2000000000096
:1005200000002C00000000000000E600E400500085
:1005300051004F000000AB00AC00A900AA00AB00C6
:10054000AC00A900AA0009025B00030100A0FA099F
:1005500004000001030101000921110100012240F2
:1005600000070581030800010904010002030000DF
:100570000009211101000122220007058203200049
:100580000107050303200001090402000103000024
:100590000009211101000122320007058403200017
:1005A0000112010002000000088680565600010179
:1005B0000203011C037600690061006C003A0066CA
:1005C0000036003400630032006200330063000034
:1005D000000E03730074006F00720072006500006B
:1005E0000012035300540048004C004D0020006BE3
:1005F0000062000000040309040000000000000085
:1006000000000000000000000000000000000000EA
:10061000000000000000000000000000007E0F004D
:10062000D4FFFFFFC70000007800000000000000BA
:10063000002A2B280000000000000000000000003D
:100640000000000029000000002C1E34202122247C
:10065000342627252E362D3738271E1F202122230A
:100660002425263333362E37381F0405060708099C
:100670000A0B0C0D0E0F1011121314151617181962
:100680001A1B1C1D2F3130232D35040506070809C0
:100690000A0B0C0D0E0F1011121314151617181942
:1006A0001A1B1C1D2F3130354C07087F0807003EF0
:1006B0005B4F5B3E003E6B4F6B3E001C3E7C3E1C26
:1006C00000183C7E3C18001C577D571C001C5E7FA8
:1006D0005E1C0000183C180000FFE7C3E7FF0000A5
:1006E0001824180000FFE7DBE7FF0030483A060E49
:1006F00000262979292600407F05050700407F054F
:10070000253F005A3CE73C5A007F3E1C1C0800086D
:100710001C1C3E7F0014227F2214005F5F005F5F7D
:100720000006097F017F00006689956A00606060AD
:1007300060600094A2FFA2940008047E04080010E8
:10074000207E20100008082A1C0800081C2A08081F
:10075000001E10101010000C1E0C1E0C0030383E35
:10076000383000060E3E0E060000000000000000BB
:10077000005F000000000700070000147F147F14D2
:1007800000242A7F2A120023130864620036495687
:10079000205000000807030000001C224100000058
:1007A00041221C00002A1C7F1C2A0008083E080861
:1007B0000000807030000008080808080000006091
:1007C0006000002010080402003E5149453E000030
:1007D000427F4000007249494946002141494D335A
:1007E000001814127F10002745454539003C4A493E
:1007F000493100412111090700364949493600466F
:100800004949291E00000014000000004034000087
:100810000000081422410014141414140000412292
:100820001408000201590906003E415D594E007C42
:100830001211127C007F49494936003E4141412254
:10084000007F4141413E007F49494941007F0909FC
:100850000901003E41415173007F0808087F0000F4
:10086000417F4100002040413F01007F08142241A8
:10087000007F40404040007F021C027F007F040850
:10088000107F003E4141413E007F09090906003EBC
:100890004151215E007F0919294600264949493204
:1008A0000003017F0103003F4040403F001F204004
:1008B000201F003F4038403F0063140814630003CA
:1008C00004780403006159494D4300007F414141D0
:1008D00000020408102000004141417F0004020191
:1008E0000204004040404040000003070800002090
:1008F00054547840007F2844443800384444442805
:1009000000384444287F0038545454180000087EAE
:1009100009020018A4A49C78007F08040478000051
:10092000447D4000002040403D00007F10284400EE
:100930000000417F4000007C04780478007C0804BB
:10094000047800384444443800FC18242418001863
:10095000242418FC007C080404080048545454243F
:100960000004043F4424003C4040207C001C204004
:10097000201C003C4030403C004428102844004CDF
:100980009090907C004464544C4400000836410030
:10099000000000770000000041360800000201025C
:1009A0000402003C2623263C00000000000000401A
:1009B0004040F0F8F8FF38FFF8F83FF8F8FF38FF4C
:1009C000F8F8F040404000000000000080C0C0C0C7
:1009D000800000C0C08000000080C0C000C0C00017
:1009E0000080C0C00000000000C0C0C0C0C000C087
:1009F000C000000000000000000000000000000037
:100A000000000000000000000000000000000000E6
:100A100000000000000000000000000000000000D6
:100A20000000000000000000C0F0F8FC3E1E0601BF
:100A30000000007F4141417F007F4141417F000034
:100A400080C0E07E5B4F5BFEC00000C000DCD7DEF4
:100A5000DEDED7DC00C00000000000000000000067
:100A6000000000000000000000000000000000493D
:100A70004949FFFFFFFFE0DFBFBF00BFBFDFE0FF6F
:100A8000FFFFFF49494900000000001F3F6060E090
:100A9000BF1F007F7F071E381E077F7F007F7F0EEE
:100AA0001F3B716000000000007F7F0C0C0C007E7B
:100AB0007E007F7E0303007F7E03037E7E03037F31
:100AC0007E000F3E703C063C703E0F00327B494971
:100AD0003F7E007F7E0303001E3F69696F26000092
:100AE0000000000000000000030F1F3F3C78706012
:100AF0000000007F4141417F007F4141417F003044
:100B00007B7F7830202030787F3B0003000F7F0F01
:100B10000F0F7F0F00030000000000000000000026
:100B200000000000000000000000000000000001C4
:100B30000101070F0F7F0F7F0F0F7E0F0F7F0F7FBA
:100B40000F0F07010101000000000000000000007D
:100B50000101000000000000000000000000000093
:100B60000000000000000000000000000000000085
:100B70000000000000000000000000000000000075
:100B80000000000000000000000000000000000065
:100B90000000000000000000000000000000000055
:100BA0000000000000000000000000000000000045
:100BB0000000000000000000000000000000000035
:100BC0000000000000000000000000000000000025
:100BD0000000000000000000000000000000000015
:100BE0000000000000000000000011241FBECFEF35
:100BF000DAE0DEBFCDBF11E0A0E0B1E0E0EAF8E569
:100C000002C005900D92AC38B107D9F725E0ACE8E9
:100C1000B1E001C01D92A338B207E1F70E94FB21A9
:100C20000C94012C0C940000482F20917403909197
:100C30003B0357E0291302C080E0089530E0529F43
:100C4000F001539FF00D1124E45CFC4F8181681387
:100C500006C08081481303C085818111EECF2F5FCC
:100C60003F4F2770E7CFE8EDF0E080818E7F8083F3
:100C70001092E2001092DA001092E100A0EEB0E0D3
:100C80008C9181608C9380818F77808319BCA7EDD4
:100C9000B0E08C918E7F8C9380818F7E80831092C8
:100CA000240308952091E4003091E50095E6A90120
:100CB0002091EC00822F817020FF06C08091E80017
:100CC00080FF06C080E008952091E80022FD1AC050
:100CD00080913103882389F0853089F08091EB0081
:100CE00085FD0FC02091E4003091E50042175307C5
:100CF000F9F29150E1F684E0089582E0089583E0EE
:100D0000089581E008958091330387FF13C0809197
:100D1000E80082FF06C08091E8008B778093E800AE
:100D200004C0809131038111F2CF08958091310385
:100D30008823D9F38091E80080FFF8CF8091E80004
:100D40008E77ECCF982F9093E900242F762F50E0E8
:100D5000891731F07091EC002091ED005091F00076
:100D600021FD07C09F5F973071F78093E90081E014
:100D700008953091EB003E7F3093EB003091ED0011
:100D80003D7F3093ED003091EB0031603093EB000C
:100D90007093EC002093ED005093F0002091EE0052
:100DA00027FDE0CF80E00895B0E0A0E0EAEDF6E0B6
:100DB0000C94D52AC8EDD0E088818F7E8883E7ED3A
:100DC000F0E080818160808384E082BF81E0809355
:100DD000240388818E7F888302EE10E0F801108260
:100DE0001092DA0081EEC82ED12CF6011082888193
:100DF0008F77888388818068888388818F7D8883C6
:100E000019BC1092310310923203109230031092E9
:100E10002F0390EEE92EF12CF70180818B7F8083E8
:100E200088818160888342E060E080E00E94A206C1
:100E3000F60180818E7F8083F801808181608083CC
:100E4000808188608083F70180818E7F80838881A4
:100E500080618883CDB7DEB7E8E00C94F12AFC010D
:100E60008091390390913A0386179707A0F0611596
:100E7000710529F49091E8009E779093E80090E046
:100E80006115710551F4911108C08091E80082FF4D
:100E900034C080E00895BC01F2CF809131038823F3
:100EA000C1F18530C1F18091E80083FD30C08091AF
:100EB000E80082FDEACF8091E80080FFE1CF8091D9
:100EC000F3002091F200382F6115710519F02830D8
:100ED000310558F091E02830310509F090E020917B
:100EE000E8002E772093E800CBCF81918093F1002A
:100EF000615071092F5F3F4FE7CF80913103882305
:100F000041F0853041F08091E80083FFBECF81E061
:100F1000089582E0089583E008950895809126035E
:100F2000089587E797E7909301088093000888E188
:100F30009AE00FB6F894A895809360000FBE909346
:100F40006000FFCF2FB7F8946091200370912103C8
:100F500080912203909123032FBF08959C01FC01EF
:100F600032969FEF80E04191461751F09F3F19F470
:100F7000411101C0982F8F5F8630A9F79F3F09F478
:100F80000895290F311D97FD3A95F901628308955F
:100F9000A3E0B0E0EEECF7E00C94DB2A20911D0317
:100FA00030911E0328173907A1F090931E038093F8
:100FB0001D03E0911B03F0911C03309751F024E0D6
:100FC00029839B838A830680F781E02DCE010196D9
:100FD00009952396E2E00C94F72AA3E0B0E0E3EF52
:100FE000F7E00C94DB2A2091190330911A0328179B
:100FF0003907A1F090931A0380931903E0911B0322
:10100000F0911C03309751F023E029839B838A835E
:101010000680F781E02DCE01019609952396E2E046
:101020000C94F72AE0911B03F0911C03309729F0F0
:101030000190F081E02D0995089580E008953091A8
:1010400078038317A0F590E0262F26952695269500
:10105000239F800D911D1124811522E092073CF5FC
:10106000FC01E558FC4F5081677021E030E001C081
:10107000220F6A95EAF74423D9F0252B2517B9F0FA
:10108000208325E0969587952A95E1F721E030E0C9
:1010900002C0220F331F8A95E2F780917903909165
:1010A0007A03822B932B90937A038093790308958C
:1010B00020952523E3CF80E0089590917E0292FF52
:1010C00006C0282F28712830F9F4877F846093FFA9
:1010D00006C0282F28712831F1F4877E8461209181
:1010E0007F0220FF06C0382F38713830D9F4877F4F
:1010F000816021FF06C0282F28712831D1F4877E16
:10110000816194FD877E0895282F24712430F9F69B
:101110008B7F8860DCCF282F2471243101F78B7EF0
:101120008861DDCF382F3171313019F78E7F8860BB
:10113000E0CF282F2171213121F78E7E8861E1CF08
:1011400082389105B9F1B0F48133910509F47DC07D
:1011500048F48932910509F46DC08A32910509F489
:101160007BC008958533910509F45FC089339105EB
:1011700009F10895833E9105D9F138F4803E910537
:1011800029F1823E910579F10895863E9105D9F1C4
:10119000873E910509F43EC0843E910541F52091BA
:1011A0007F0221FF24C080917E0284FD19C087EE5A
:1011B00090E0089520917E02237009F05AC020919A
:1011C0007F0223FF14C089E290E0089520917E02FF
:1011D00020FD38C030917F0230FF09C024FF43C09A
:1011E00090E080E0089520917E0222FDF7CF0895DF
:1011F00020917E0222FD3AC030917F0230FD39C03D
:1012000024FFF5CFEDCF20917E0223FFF0CF24FD08
:10121000E7CFCDCF20917E0223FD2EC030917F02FB
:1012200031FFEECF84EE90E0089520917E0225FFFD
:10123000DECFC9CF20917E0225FD21C020917F0203
:1012400023FFD5CF89E390E0D2CF20917E0226FF05
:10125000CECF8AE290E0089520917E0226FFC7CF8C
:1012600081E390E0089583EE90E0089582EE90E0AF
:10127000089580EE90E0089586EE90E0089585E36D
:1012800090E008951F93CF93DF930E94A008EC0194
:10129000C11580E5D807F0F5C11580E4D80708F03E
:1012A0009CC0C03ED10520F5CD3CD10508F082C0E0
:1012B000C83AD10578F4C53AD10508F073C0C130F9
:1012C000D10519F1209709F1C430D105F0F4D0E02F
:1012D000C0E01BC0C33CD105D0F7C85AD0E0CC0F4A
:1012E000DD1FCF5DDE4F0990D881C02DD4640DC0C5
:1012F000C11580E2D80708F0D1C0C11581E0D80738
:1013000008F05AC0C83ED10510F7CE01DF91CF9149
:101310001F910895C03682E5D80718F5C03482E5DC
:10132000D80708F06BC0C03282E5D80708F05FC06C
:10133000C11582E5D80708F497C02C2F269526956D
:1013400080E2289F900111248C2F8370C1E0D0E0AF
:1013500002C0CC0FDD1F8A95E2F7C22BD32BDD68CC
:10136000D4CFC03A82E5D80760F4C03882E5D80708
:1013700008F459C0CF71D0E0DC2FCC27C46FD06AFD
:10138000C4CFC03C82E5D80708F462C0C03E82E505
:10139000D80708F09CCFDC2FCC27CC27DF71C06F9B
:1013A000D06AB3CFC55AD0E0C25EDE4FC881D0E06C
:1013B000D064ABCFD065A9CF8D2F0E945D08182FC8
:1013C000CE0199270E94A008C12FD0E0DC2FCC27A6
:1013D000CC27DF71C82BD92B98CFCE0199270E943B
:1013E000A008CC27DF70C82BD92BD06A8ECFCF7145
:1013F000D0E0DC2FCC27C16FD06A87CF2C2F269569
:101400002695277080E2289F900111248C2F8370ED
:10141000C1E0D0E002C0CC0FDD1F8A95E2F7C22BFD
:10142000D32BDC6872CF2C2F26952695277080E26F
:10143000289F900111248C2F8370C1E0D0E002C05E
:10144000CC0FDD1F8A95E2F7C22BD32BDA685DCF74
:101450008C2F8F710E945D08C82FD0E0DC2FCC2725
:10146000CC27DF71D06251CF8C2F8F710E945D0825
:1014700055E0D695C7955A95E1F7CF70D0E0DC2FAF
:10148000CC27282F30E084FF05C044E0220F331F13
:101490004A95E1F7C22BD32BD06937CF8D2F8F71AF
:1014A0000E945D08182FCE0199270E94A008C12F25
:1014B000D0E0DC2FCC27CC27DF71C82BD92BD2CFA3
:1014C00080916A02882331F010926A0210926902B8
:1014D00010926802089580959091670298239093E6
:1014E0006702089510925D0210925C0210925B02F6
:1014F000089590915A02292F282321F0809589235D
:1015000080935A0208958091740390913B0398133D
:1015100001C008958F5F8770FACFA82FA77023E0CE
:10152000969587952A95E1F7FC01EE0FFF1FE80FCE
:10153000F91FE60FF71F50E040E080E0219130E016
:101540000A2E02C0369527950A94E2F721703327B8
:10155000042E01C0220F0A94EAF7822B4F5F5F4FDF
:101560004330510559F70895903FB9F0963070F423
:10157000803198F440E1949F900111246FE272E071
:10158000820F932F911D0E948D0A08959C5F9230C7
:1015900020F46CE272E090E0F6CF80E00895262F10
:1015A000277091E001C0990F2A95EAF723E076951C
:1015B00067952A95E1F7FB01EE0FFF1FE60FF71F76
:1015C000E40FF51F50E040E0682F70E08191DF01EB
:1015D00011979B01042E02C0369527950A94E2F7D5
:1015E000217021952827292328272C934F5F5F4FAF
:1015F0004330510559F70895282F862F903F71F0F9
:10160000963068F4203150F430E1939FB0011124FA
:10161000620F711D4FE252E00E94CF0A08959C5F55
:101620009230E0F7622F70E04CE252E0F5CF809309
:101630007D02089590917D0221E030E0F90101C022
:10164000EE0F8A95EAF7D90102C0AA0FBB1F6A956F
:10165000E2F7EA2B01C0220F4A95EAF7892F8E2381
:10166000E81305C0292B822F0E94170B089520959F
:101670002923F9CF21E030E001C0220F8A95EAF753
:10168000209580917D0282230E94170B08959091EE
:101690005D028095892380935D02282F277069F46D
:1016A000891759F090917F0292FF07C08695869521
:1016B00086950E943A0B0E94720A089521E030E05C
:1016C00001C0220F8A95EAF780917D02822B0E9449
:1016D000170B089580937C0208959C013A9521157B
:1016E0003F4150F5FC01EE27F170BC016627727096
:1016F000AC01442754709C012227387094FF0EC01F
:1017000080E1EF2B09F480E0672B09F08062452B24
:1017100009F08064232B89F08068089581E0EF2B25
:1017200009F480E0672B09F08260452B09F08460A2
:10173000232B19F08860089580E00895EF92FF92BE
:101740000F931F93CF93DF93809129029091EE0224
:1017500091111FC09FE1F92EF81AC1E705E010E0D2
:1017600031E7E32EDE2DDC1B07C06F2D6D1B41E042
:101770008C2F0E941F08DF5FD0171106B4F30150B1
:101780001109C150CE3671F7CDB7DEB7E6E00C9443
:10179000F32A90912802282F291B1216DCF4DFE18E
:1017A000D91BD53088F3C0E021E7F22E1AE1191BCE
:1017B0000F2D0C1B6D2F6C1B40E0802F0E941F080B
:1017C000612F6C0F41E0802F0E941F08CF5FC33054
:1017D00079F7DACF2223C1F2DFE1D81BD530A0F2AE
:1017E000C0E091E7F92E1AE1181B0F2D0C1B612F99
:1017F0006C0F40E0802F0E941F086D2F6C1B41E092
:10180000802F0E941F08CF5FC33079F7BDCFB0E0B3
:10181000A0E0EDE0FCE00C94D42AD82F8091EE02F9
:10182000882309F442C086E9E82E81E0F82E00EE14
:1018300011E0C2E29FE1C92EF801D1808081BD2C68
:10184000B81AB7FE06C06C2D681B40E08C2F0E94B2
:101850001F08F701818181937F01F801D1928F01E7
:10186000BB2031F06C2D6D1941E08C2F0E941F08B8
:10187000CF5FCB3609F78091DF01C09129028D1728
:1018800010F5CF3100F5CF5FC0932902D093DF016F
:101890008091290290912802891781F06FE1681BDD
:1018A00041E08BE60E941F0809C0C2E241E06FE1FF
:1018B0008C2F0E941F08CF5FCC36C1F7CDB7DEB7A3
:1018C000E9E00C94F02AD81710F0D111DFCFCC2327
:1018D000E9F26FE16C1B40E08BE60E941F08C150EB
:1018E000D3CFEF92FF920F931F93CF93DF938C018F
:1018F0008091EE02811121C0C1E041E062E18C2FB4
:101900000E941F0841E06FE18C2F0E941F08CF5FEB
:10191000CF3199F7C3E141E06C2F80E00E941F08AE
:1019200041E06C2F8FE10E941F08CF5FCF3199F704
:10193000CDB7DEB7E6E00C94F32AF801D181C0817F
:10194000DD0FCC0F83E1F82EFD0EEE24E394EC0EB8
:1019500045816F2D8E2D0E941F08DC5EF8014581A8
:101960006D2F8E2D0E941F08CE5FF80145816F2DCF
:101970008C2F0E941F08F80145816D2F8C2F0E942B
:101980001F08D6CFCF93DF93C0918105D0918205F8
:101990008A30C1F420917803CE018B579340622F97
:1019A00070E00E94B72A281B822F66E00E94022B5B
:1019B000C82FC15018F4DF91CF91089580E20E94A2
:1019C000C20CF7CF8D30E9F4CB57D3402091780388
:1019D000622F70E0CE010E94B72A281B822F9E0141
:1019E000280F311D2115324018F080E0D0E0C0E012
:1019F000C80FD11DC558DC4FD0938205C093810517
:101A0000DACF96E0FE01ABE7B5E001900D929A9532
:101A1000E1F7803E08F458C086E0FE0111928A95F5
:101A2000E9F7C0918105D091820546E050E0BE0102
:101A30008BE795E00E949B2B9E012B573340892B0F
:101A400041F1C90145E0969587954A95E1F741E056
:101A500050E0BA0102C0660F771F8A95E2F7CB010A
:101A60006091790370917A03862B972BB9016B5F94
:101A70007F4FE5E076956795EA95E1F702C0440F60
:101A8000551F6A95E2F7842B952B90937A038093E8
:101A900079032A5F3F4F40917803642F70E0C901BA
:101AA0000E94B72A481B463010F4240F311D21151F
:101AB00072E0370710F030E020E025583C4F3093BB
:101AC00082052093810577CFF6E08F9FB001112426
:101AD0006755794F46E050E0CE010E94922BA1CF8E
:101AE0000F931F93CF93DF93EC01FC010190002033
:101AF000E9F78F0101501109C017D10728F0DF91D4
:101B0000CF911F910F91089589910E94C20CF4CF3B
:101B10000F931F93CF93DF938B01EA0190913103D1
:101B2000943061F58093E9008FEF9091E800815047
:101B300095FD06C095ED9A95F1F700008111F5CF5E
:101B40008091E80085FF1AC00E945206811111C0E1
:101B50008091E80085FD06C08091E8008E77809333
:101B6000E800F2CFF80181918F018093F100219775
:101B700079F78091E8008E778093E800DF91CF912C
:101B80001F910F91089543E050E0BC0184E00E9452
:101B9000880D0895CF93DF93EC0148E050E0BC013D
:101BA00081E00E94880D88E0FE01A7E2B3E0019089
:101BB0000D928A95E1F7DF91CF910895CF93DF934E
:101BC000C9EBD1E060E0CE010E94CD2B2196C1157A
:101BD00084E0D807B9F7DF91CF9108950F931F9351
:101BE000CF93DF93142F022F823020F5623010F54F
:101BF00098E0899FE001112484E0689FB0011124DE
:101C0000C60FD71FC755DE4F82E090E0442311F086
:101C100090E080E0632F8C0F9D1F0E94CD2B83E00E
:101C200090E0112311F081E090E0602F8C0F9D1F58
:101C30000E94CD2BDF91CF911F910F9108951F939B
:101C4000CF93DF93122F8230E0F46630D0F440312E
:101C5000C0F490E2699FE001112450E0440F551F49
:101C6000C40FD51F90EC899FC00DD11D1124632F87
:101C7000CE0189960E94CD2B612FCE018A960E94BB
:101C8000CD2BDF91CF911F910895B0E0A0E0EBE460
:101C9000FEE00C94CF2AA0901703B090180381E0C7
:101CA00090E0909318038093170386E3C82E85E095
:101CB000D82E96EBE92E93E0F92EC0E0470110E014
:101CC00014C0F301259134914D2F612F8C2F0E9468
:101CD0001F0E82E0680E711CDF5FD03191F780E249
:101CE000880E911C1F5F163019F03401D0E0E9CF47
:101CF0008601D0E0F8012591349141E06D2F8C2FC1
:101D00000E94EE0DF80132962591349140E06D2F3E
:101D10008C2F0E94EE0D0C5F1F4FD13051F488E0E4
:101D2000C80ED11C80ECE80EF11CC13021F0C1E0DE
:101D3000C5CFD1E0DFCFB0921803A0921703CDB783
:101D4000DEB7EEE00C94EB2ACF93C82F6FEF811132
:101D500064E185E290E00E94CD2B6FEFC11169E054
:101D600086E290E00E94CD2B6FEFC11163E987E21C
:101D700090E00E94CD2BCF91089580E00E94A40EA8
:101D800060E088E290E00E94CD2B0E94450E0E9408
:101D9000DE0D81E00E94A40E0895FF920F931F9321
:101DA000CF93DF93F42E823070F5623060F528E037
:101DB000829F8001112434E0639FB0011124060F3B
:101DC000171F07551E4F82E090E0442311F090E06A
:101DD00080E0800F911F0E94AF2BC82FD0E0DC2F36
:101DE000CC2783E090E0FF2011F081E090E0800FAD
:101DF000911F0E94AF2B9E01282BC901CDB7DEB7E2
:101E0000E5E00C94F42A90E080E0F8CF0F931F9364
:101E1000CF93DF93823030F5663020F5403110F5F6
:101E200020E2629F8001112450E0440F551F040FEF
:101E3000151F30EC839F000D111D1124C8018996D8
:101E40000E94AF2BC82FD0E0DC2FCC27C8018A9688
:101E50000E94AF2B9E01282BC901DF91CF911F91CA
:101E60000F91089590E080E0F8CF2091E202309148
:101E7000E302232BD9F4703F39F4603FB9F4809129
:101E8000E4029091E5020895763048F4603170F4F0
:101E9000823060F4462F672F0E94060F08957D3F21
:101EA00041F4623018F441E0823050F090E080E07C
:101EB00008957C3FD9F76230C8F78230B8F740E028
:101EC0000E94CD0E0895CF92DF92FF920F931F9341
:101ED000CF93DF936C0100917D0280917C02082BEF
:101EE000C1E0D0E010E0FC2EC8010C2E02C0959598
:101EF00087950A94E2F780FD0FC0CD2B51F4F12CA9
:101F00008F2DDF91CF911F910F91FF90DF90CF9098
:101F10000895D0E0C0E0E7CFB6018C2F0E94350FC6
:101F20000E944209019749F3EBCFCF93DF93EC0175
:101F30000E94630FBE010E94350F0E944209DF918B
:101F4000CF910895FC0124812223C1F080819181E9
:101F50000E94950F92959F70963091F058F4925F81
:101F60009F70923058F4803F19F030F4883E30F47E
:101F700081E008959A5FF4CF843FD1F380E0089523
:101F8000883EB0F3813FD1F7F3CFA6E0B0E0EBECB1
:101F9000FFE00C94DA2A49835A8349815A819923B4
:101FA000A1F0222391F0CA010E94630F182F682F1D
:101FB00089819A810E94FC0A69817A81812F0E941D
:101FC000350F2696E3E00C94F62ACA010E94B40A63
:101FD000182FF2CF85E290E00E94AF2B843189F474
:101FE00086E290E00E94AF2B893059F487E290E0BE
:101FF0000E94AF2B91E0833909F090E0892F817026
:10200000089580E0FCCFB0E0A0E0E9E0F0E10C94BE
:10201000D52A6C017B0164E670E088E70E94D12933
:102020008C01E601EC0CFD1C17FD0BC0FE01849138
:1020300064E670E00E943D2A8C012196CE15DF05F2
:1020400099F70E94B32A81E00115110509F080E09B
:10205000CDB7DEB7E8E00C94F12A8091150390919A
:102060001603911103C091E089270895882369F030
:1020700062E070E084EB93E00E940310811103C0E2
:102080008091150308951092150380911503EBCFED
:10209000CF93C0911503809116038823D1F00E943D
:1020A000A207605A75418F4F9F4F60931103709341
:1020B00012038093130390931403C11108C062E0CC
:1020C00070E082EB93E00E940310811105C0C09183
:1020D00015038C2FCF91089581E080931503F7CFDE
:1020E00090917F0292FB222720F9281779F080FB3C
:1020F00092F990937F0260917E0270917F0284E05A
:1021000090E00E94EB2B82E00E94470B08951F9203
:102110000F920FB60F9211242F933F934F935F931B
:102120006F937F938F939F93AF93BF93EF93FF939F
:102130008091E10082FF09C08091E20082FF05C02A
:102140008091E1008B7F8093E1008091DA0080FF35
:1021500024C08091D80080FF20C08091DA008E7F5B
:102160008093DA008091D90080FF9DC080E189BD15
:1021700082E189BD09B400FEFDCF81E08093310387
:1021800080912403811109C00E9433060E94D40665
:102190008091E20084608093E2008091E10080FF02
:1021A00017C08091E20080FF13C08091E2008E7F13
:1021B0008093E2008091E20080618093E200809150
:1021C000D80080628093D80019BC85E080933103E9
:1021D0008091E10084FF2BC08091E20084FF27C042
:1021E00080E189BD82E189BD89B5982F917080FF1A
:1021F000FBCF8091D8008F7D8093D8008091E10043
:102200008F7E8093E1008091E2008F7E8093E200D8
:102210008091E20081608093E20080913203882304
:1022200009F447C084E080933103809131038091A9
:10223000E10083FF27C08091E20083FF23C08091EB
:10224000E100877F8093E10082E080933103109268
:1022500032038091E1008E7F8093E1008091E20063
:102260008E7F8093E2008091E20080618093E200A3
:1022700042E060E080E00E94A2068091F000886069
:102280008093F000FF91EF91BF91AF919F918F915B
:102290007F916F915F914F913F912F910F900FBE62
:1022A0000F901F90189519BC1092310310922403BF
:1022B00074CF8091E30087FD93E090933103B5CF15
:1022C00078941F921FB61F9211248F939F93AF9300
:1022D000BF938091200390912103A0912203B0919C
:1022E00023030196A11DB11D809320039093210328
:1022F000A0932203B0932303BF91AF919F918F913D
:102300001F901FBE1F9018959C014FB7F8948091A5
:10231000200390912103A0912203B09123034FBF8A
:10232000821B930B08952FB7F8948091200390910E
:102330002103A0912203B09123032FBF08952F9270
:102340003F925F926F927F928F929F92AF92BF92D5
:10235000CF92DF92EF92FF920F931F93CF93DF9371
:1023600080911603882309F4D2C08BE793E0909301
:10237000820580938105D091E6028091EE02811161
:102380002EC00E94070C0E949E0B90E080E00E94ED
:10239000710CC0E06FE1E62E7FE0D72EEAE7CE2E8B
:1023A000FE2CFC1A8C2F6D2D0E94022B02E0911145
:1023B00006C041E06F2D85E70E941F0803E010E092
:1023C00041E06F2D8C2D811B0E941F081F5F101391
:1023D000F7CFCD5FC13221F781E08093EE028AE131
:1023E00091E00E94700D8091780390E085589C4F99
:1023F000909382058093810580910901D81305C0CF
:102400008091EB02803309F44BC0D093090180E343
:102410008093EB02CD2ED12CF12CE12C1092EA020C
:10242000C701B6012AE030E040E050E00E94222BD4
:10243000605D603331F0C114D104E104F10409F4AA
:1024400060E36093E90260E32AE0C216D104E1048C
:10245000F10490F05AE0852E912CA12CB12CC701EB
:10246000B601A50194010E94222BCA01B901A50160
:1024700094010E94222B605D6093E80220E364E6F1
:10248000C616D104E104F10448F0C701B60124E600
:1024900030E040E050E00E94222B205D2093E702D4
:1024A00087EE92E00E94700D8091EC029091ED0217
:1024B0000E9484118D32914058F08D2F0E94070C9C
:1024C0000E949E0B0E9493119093ED028093EC0268
:1024D0008091790390917A03892B59F580911503A6
:1024E0008823A9F00E94A207009111031091120302
:1024F0002091130330911403601B710B820B930B1B
:102500006F3F7F4F8F4F9F4710F40E942D10DF9138
:10251000CF911F910F91FF90EF90DF90CF90BF90E0
:10252000AF909F908F907F906F905F903F902F9093
:10253000089580911603882389F2809110038111F8
:10254000CDCF0E9448102091790330917A03211554
:10255000310521F280E041E050E0082F10E01A013F
:10256000082E02C0220C331C0A94E2F7B101622348
:102570007323672B11F48F5FF0CF90910F0390FFBF
:1025800095C0880F880F880F80930C0110920F015F
:10259000895F80930D0183E08093100124E630E091
:1025A00047E050E06AE071E088E70E946B2A892BDF
:1025B00009F094CFA80125E0440F551F2A95E1F7B3
:1025C00080910F0380FF84C0EFEEF2E080E2EF0124
:1025D00019928A95E9F7A9E7B1E005E711E08DE7DF
:1025E000C82E81E0D82E97E0592E772473948D91D0
:1025F000F80121918F01240F352F311D25583C4FB3
:10260000E82FF0E0E151FD4F90E080E0652C681A82
:10261000872C082E01C0880C0A94EAF77901A12CB6
:10262000E701B9907E01B820662D6A196770962E71
:10263000062E000C770BDB2D01C0DD0F9A94EAF714
:102640007195619571096770772701C0B6946A9595
:10265000EAF7BD2A6081962E9B289082A39468E0B9
:10266000A612DECF019631968830910579F6CA160A
:10267000DB0609F0BCCF04E610E020E230E04FEECC
:1026800052E060E488E70E948C2A892B09F026CF6B
:10269000E101C095D0958091790390917A03C82388
:1026A000D923D0937A03C093790318CF8295880FEA
:1026B000807680930C01980136952795369527955D
:1026C00020930F01815E80930D012093100166CF4E
:1026D00045585C4F04E610E020E230E0D2CFB0E095
:1026E000A0E0E5E7F3E10C94CE2A90E080E0712CC5
:1026F000C1E0D0E0C12CD12C7601C3943CE7832EFD
:1027000032E0932EADE5B1E050E040E02D91E22FB4
:10271000E295EF70F0E02F70BE0102C0660F771FE8
:102720002A95E2F79B01BE01042E02C0660F771FB7
:102730000A94E2F768237923042E02C07595679501
:102740000A94E2F732A1662309F475C0232B22A371
:102750004F5F5F4F44305105C9F67AE17A95F1F742
:1027600000C0B701A601082E04C0440F551F661F04
:10277000771F0A94D2F75A019A0120953095E0E725
:10278000F2E007E511E0612C41915191D8015D9093
:102790008D01A52DA295AF70B0E090966C9170E080
:1027A000A52DAF7002C075956795AA95E2F7DF0178
:1027B000129760FD43C0BA016A297B2911967C9368
:1027C0006E936D917C914617570711F066246394C0
:1027D0008E169F06C9F6762801968031910509F07C
:1027E00091CF772079F181E080936F020E9493115D
:1027F00090936E0280936D0280916D0290916E02B3
:102800000E948411059710F14CE050E060E772E0FF
:1028100086ED92E00E949B2B892BF1F08CE0E0E7A3
:10282000F2E0A6EDB2E001900D928A95E1F781E029
:1028300010926F020CC02095232389CFBA01622326
:102840007323BCCF80916F028111D6CF80E0CDB7CA
:10285000DEB7EFE00C94EA2A80E0EACF90916A02BA
:10286000292F282361F08095892380936A02882389
:1028700039F00E9493119093690280936802089541
:1028800090E080E0F8CF8091670290916602892BFA
:1028900080938E0180916A02882319F10E9493111E
:1028A0002091680230916902821B930B8838934112
:1028B00010F00E94600A80918E0190916A02892B2B
:1028C00080938E0120E080E991E0FC013191CF01FD
:1028D00031112F5FF1E086399F07B9F721110E946E
:1028E000600A48E050E06EE572E08EE891E00E94F8
:1028F0009B2B892BA9F088E0EEE8F1E0AEE5B2E091
:1029000001900D928A95E1F7E0911B03F0911C0371
:10291000309731F00280F381E02D8EE891E0099547
:10292000089510926702E0E9F1E086E0DF011D9270
:102930008A95E9F790E080E00E94ED0790E080E062
:102940000E94C807109266020E9443140895AAE2EA
:10295000B0E0EDEAF4E10C94DA2A83E393E020910D
:10296000F100DC012D93CD01B3E08B339B07B9F768
:1029700080913403833009F472C0B8F4813009F4D3
:1029800049C0823009F4B3C08091E80083FF96C249
:1029900080913303909134039A3008F08FC2E92F6D
:1029A000F0E0ED5FF34D0C94632B8A3009F48EC098
:1029B0008B3009F471C0893039F78091330381324B
:1029C00019F78091370390913803009711F002971F
:1029D000D9F68091E800877F8093E8008091E80035
:1029E00082FF38C09091F3008091F200029731F499
:1029F0008091F100813011F0863021F48091F10056
:102A0000809326038091E8008B778093E8000E94F2
:102A10008306BACF80913303813A09F0B5CF809114
:102A2000E800877F8093E800809137039091380316
:102A3000892B61F468E087E293E070E00E942F0741
:102A40008091E8008B778093E8009ECF60E090E073
:102A500080E0F3CF809131038111C0CF95CF809179
:102A60003303813A09F090CF809137039091380376
:102A7000892B09F089CF8091E800877F8093E80057
:102A80008091E80080FFFCCF809111018093F100DC
:102A90008091E8008E77B9CF80913303813209F0BD
:102AA00073CF8091370390913803892B09F06CCF55
:102AB0008091E800877F8093E8000E9483068091E0
:102AC0003503809311010E9491145ECF80913303EE
:102AD000813209F059CF8091E800877F8093E80028
:102AE0000E94830680913603809325034DCF809109
:102AF0003303813A09F048CF8091E800877F8093C3
:102B0000E8008091E80080FFFCCF80912503BECFD4
:102B1000803899F0823809F0D1C1809137038F70E5
:102B2000873008F0CBC18093E9008091EB0085FBF2
:102B3000882780F91092E90006C080912F039091B8
:102B40003003911182609091E800977F9093E800A4
:102B50008093F1001092F1008091E8008E77AAC175
:102B6000882309F498C1823009F0A8C18091350307
:102B700081119BC1809137038F702FEF280F263072
:102B800008F09CC18093E9002091EB0020FF8DC1EB
:102B9000933031F48091EB0080628093EB0085C12B
:102BA0009091EB0090619093EB0021E030E001C048
:102BB000220F8A95EAF72093EA001092EA008091AA
:102BC000EB008860EACF811179C1109135031F773E
:102BD0008091E3008078812B8093E3008091E8006E
:102BE000877F8093E8000E9483068091E80080FF41
:102BF000FCCF8091E30080688093E30082E01111B4
:102C000083E0809331035AC18058823008F056C166
:102C100020913503309136032C3DE3E03E07A1F5CA
:102C200083E08A838AE289834FB7F894DE011396A2
:102C300020E03EE051E2E32FF0E050935700E491B2
:102C400020FF03C0E295EF703F5FEF708E2F90E0A2
:102C5000EA30C0F0C7968D939D932F5F243159F7CA
:102C60004FBF8091E800877F8093E8006AE270E0C0
:102C7000CE0101960E942F078091E8008B77809308
:102C8000E8001CC1C096E7CF8091370390913803CC
:102C9000432F55274330510509F44AC078F5413098
:102CA000510509F485C08BE590E0E6E4F5E042309B
:102CB000510509F003C12091E800277F2093E80027
:102CC0002091390330913A038217930708F49C014D
:102CD00040E02115310509F070C041116EC08091AE
:102CE000E80082FDC9CF80913103882329F2853025
:102CF00019F28091E80083FFF2CFBECF4132510537
:102D000009F447C04232510509F0D8C0833091051B
:102D100008F0D4C0FC01EE0FFF1FE058FE4F0190F9
:102D2000F081E02D83589E4FDC018C9190E01DC016
:102D3000332721303105E9F02115310579F02230B2
:102D40003105F9F02330310509F0B8C0E3EBF5E0C7
:102D5000E4918E2F90E0E3EBF5E007C0E5EFF5E0BE
:102D6000E4918E2F90E0E5EFF5E0009709F4A6C01E
:102D7000A2CFE1EEF5E0E4918E2F90E0E1EEF5E0F8
:102D8000F4CFE1EDF5E0E4918E2F90E0E1EDF5E098
:102D9000ECCF8330910508F091C0880F991FFC019A
:102DA000EA57FE4F0190F081E02D89E090E083CF5B
:102DB00082E190E0E1EAF5E07ECF80913103882363
:102DC00009F45ACF853009F457CF8091E80083FD8C
:102DD00053CF8091E80082FD82CF8091E80080FF90
:102DE00078CF9091F3008091F2002115310519F010
:102DF0008830910550F041E0089709F040E080915B
:102E0000E8008E778093E80064CF44914093F1000E
:102E10003196215031090196E8CF803809F04EC033
:102E20008091E800877F8093E8008091320380934F
:102E3000F10092CE811142C0109135031230F0F5AD
:102E40008091E800877F8093E800109332030E940E
:102E50008306112311F084E005C08091E30087FD13
:102E6000FACF81E08093310342E061EC81E00E947F
:102E7000A20642E261EC84E00E94A20642E261EC1A
:102E800082E00E94A20642E260EC83E00E94A20679
:102E90008091310313C080913503813079F481E052
:102EA000933009F080E0809330031092E900809124
:102EB000E800877F8093E8000E9483068091E80005
:102EC00083FF0AC08091E800877F8093E8008091AB
:102ED000EB0080628093EB00AA96E3E00C94F62A64
:102EE0001F920F920FB60F9211242F933F934F937F
:102EF0005F936F937F938F939F93AF93BF93CF9382
:102F0000DF93EF93FF93D091E900DF708091EC00A5
:102F1000C82FC17080FDC0E81092E9008091F000D8
:102F2000877F8093F00078940E94A7141092E900A4
:102F30008091F00088608093F000CD2BCF70C0931B
:102F4000E900FF91EF91DF91CF91BF91AF919F91F8
:102F50008F917F916F915F914F913F912F910F9042
:102F60000FBE0F901F9018950E9491142FEF84E3CD
:102F70009CE0215080409040E1F700C0000088E1D3
:102F80009AE00FB6F894A895809360000FBE9093D6
:102F90006000FFCF882341F08095909166028923DD
:102FA000809366020E9443140895882339F090911B
:102FB0006602982B909366020E944314089588231A
:102FC00021F00E946B0A0E9443140895882339F06F
:102FD00090916702982B909367020E944314089582
:102FE000882391F19CEF980F913A80F4E0E9F1E0A9
:102FF00026E931E09191891303C0DF0111971C92FA
:103000002E173F07B9F70E944314089590E2980FD6
:10301000983050F4877091E001C0990F8A95EAF7D3
:10302000892F0E946B0AEFCF9BE5980F933028F40D
:1030300090E080E00E94ED070895885A8B3120F4DB
:1030400090E080E00E94C8070895CF93C82F88239E
:10305000B1F08CEF8C0F813A00F5E0E9F1E086E900
:1030600091E0DF012D91C21761F08A179B07D1F71C
:103070006C2F8EE891E00E94AE070E944314CF911E
:1030800008952191C21303C0DF0111971C928E177E
:103090009F07B9F70E944314EBCF80E28C0F883072
:1030A00068F4C77021E030E001C0220FCA95EAF74A
:1030B00080916702822B80936702DFCFEBE5EC0FF4
:1030C000E33040F4F0E0E25EFE4F808190E00E9449
:1030D000ED07D5CFC85ACB3190F6EC2FF0E0EE0FCC
:1030E000FF1FEF5DFE4F808191810E94C807C7CF0F
:1030F0001F93CF93DF93182FD0E0C0E0893311F4F2
:10310000C0E5D0E0812F0E942518209739F4812F47
:103110000E94F017DF91CF911F9108958FE99FE0F2
:103120000197F1F700C000002197EFCF0F931F9395
:10313000CF93DF93C62FD42F022FFC0185818823E4
:10314000A9F0609377030E94931190937603809384
:103150007503C77081E001C0880FCA95EAF70E9425
:10316000E617DF91CF911F910F910895809177031A
:10317000681332C080917503909176030E94841188
:103180008535910548F510E21D0FCD17B9F080E2A5
:103190008C0F883040F4C77081E001C0880FCA9559
:1031A000EAF70E94DF17183048F481E09D2F9770EE
:1031B00001C0880F9A95EAF70E94E617802F0E94B7
:1031C0007818183070F6D77081E001C0880FDA9552
:1031D000EAF70E94DF17C5CFC77081E001C0880FF2
:1031E000CA95EAF7F6CFB0E0A0E0E9EFF8E10C9479
:1031F000D32AEC018AE0A82E2881222309F48FC06B
:103200002130C9F599818A81913021F422960E945A
:10321000781805C0923029F422960E94251821962C
:10322000EBCF933021F422960E94F017F8CF943020
:1032300011F02196F4CF229630E020E0AE014F5FEE
:103240005F4F8053990B8A30910550F0215031091E
:1032500030F38FE99FE00197F1F700C00000F6CF4F
:10326000A29EB001A39E700D11249C01260F371F52
:103270008981EA01E3CFE22FF0E0E75DF94FB490F6
:10328000822F86958695869590E0FC01E75EF94F42
:10329000E4902770F12C022E02C0F594E7940A9472
:1032A000E2F731E0E322FF24FC01E75FF94FC4902D
:1032B000D12C022E02C0D594C7940A94E2F731E0D3
:1032C000C322DD24FC01E750FA4F049110E002C054
:1032D000159507952A95E2F701701127E114F1047D
:1032E00019F081EE0E942518C114D10419F086EE60
:1032F0000E9425188B2D0E947818C114D10419F052
:1033000086EE0E94F017E114F10419F081EE0E949C
:10331000F0170115110509F482CF8CE278CFCDB7F3
:10332000DEB7EAE00C94EF2A90917F0292FF10C082
:1033300098E0899F90011124622B60935D020E94A6
:103340005E0B0E94931190935C0280935B02089540
:103350000E945E0B0895ABE1B0E0E1EBF9E10C9463
:10336000D92A4E8B5F8B688F798F8A8F9B8F092F1D
:103370009111109266021D8A86E0FE017696DE01AA
:103380001F9601900D928A95E1F71A8D80917F0228
:1033900082FF1CC00E94931120915B0230915C025D
:1033A000821B930B8838934120F080915D0282FF4D
:1033B0007FC00E9493112091680230916902821BA4
:1033C000930B8838934110F00E94600A112349F052
:1033D00021E04F85588969897A89812F902F0E9431
:1033E000C50F1B8B0C8B87E0FE013F96DE01189604
:1033F00001900D928A95E1F7CE0108960E9449202E
:1034000081110CC087E0FE013896DE011196019013
:103410000D928A95E1F78C8581110BC017E08091A0
:10342000740390913B03891331C06B96E4E00C94D4
:10343000F52A20913B0330E0C90101968770992756
:10344000409174034817190699F097E0929FD001B4
:10345000939FB00D1124A45CBC4FFE0131960190E6
:103460000D929A95E1F780933B030E94830AD6CF91
:103470000E94911410923B031092740387E0E3E5DD
:10348000F2E0DF011D928A95E9F7C8CF819FC00164
:103490001124845C9C4F0E944920882331F2809142
:1034A000740390E001968770992780937403B7CFD7
:1034B00082E00E94470B7DCFA6E0B0E0E2E6FAE1B1
:1034C0000C94D92A8C019093E5028093E4020115B3
:1034D00080E21807C0F4802F0E94F017C8010E94F4
:1034E0006D0B9801205E31092830310518F0011567
:1034F000110531F40E94DF172696E4E00C94F52ABA
:103500000E94CA17F9CF80EF89838A830E949311A2
:103510008160682F9C838B8349815A817C8181E003
:1035200090E00E94AB19E8CFA6E0B0E0EAE9FAE14A
:103530000C94D92A8C019093E5028093E402011542
:1035400080E21807C0F4C8010E946D0B9801205E4C
:1035500031092830310518F00115110549F40E9490
:10356000E617802F0E9425182696E4E00C94F52A91
:103570000E94D517F6CF80EF89838A830E9493112A
:103580008160682F9C838B8349815A817C8181E093
:1035900091E00E94AB19E8CFA4E0B0E0E2EDFAE1DF
:1035A0000C94D12A7C01FC018481882309F42CC16C
:1035B00021E0408151816281738195810E94C50F14
:1035C0008C01F7018581882309F4C3C0E09193023F
:1035D000F0E0EE0FFF1FE856FD4F808191818F3F95
:1035E0002FE7920719F0019691838083C8019757BE
:1035F0008038910508F0ADC0D02E3FE0301708F4B8
:10360000F4C08FEF93E00E94AF2B8111EEC009EB65
:1036100011E0D11036C019821A821B821C829924B3
:103620009A9468015FEFC51AD50AC8010E94AF2BB2
:1036300089831A82882309F4D8C0813009F083C0B5
:10364000580182E0A80EB11CC6010E94AF2BC82E03
:103650008A83882309F4C9C0C5010E94AF2BD82EE4
:103660008FEF8C0D8330D8F4580193E0A90EB11C74
:10367000DB82DD2021F0CE0101960E94F318850146
:10368000D0CF011544E0140709F4AFC0C8010E946F
:10369000AF2B811101C0DA940F5F1F4FBACF8BEFB0
:1036A0008C0D833040F5C8010396DB825C01DD2080
:1036B00031F35801E4E0AE0EB11C0E94AF2B8C83B5
:1036C0008823E9F20B811C810130FFEF1F0710F006
:1036D000102F002726E0C21651F037E0C31619F06C
:1036E000C8010E94941AC8010E945C1AC8CFC80180
:1036F0000E94941AC4CF44E0C412C1CF580154E0D0
:10370000A50EB11CC80103960E94AF2BDD2009F461
:103710006CC0882309F469C08150990B989E900170
:10372000999E300D1124ED2DE150FF0BCF01820F3A
:10373000931F019708F4A3CFEFE9FFE03197F1F76A
:1037400000C00000F6CFCE0101960E94F31856018A
:1037500096CFC7010E94710CF701858181110BC0C2
:10376000F801E851FC47E730F10508F068C0E35F75
:10377000F34D0C94632B80912A02082E000C990BB8
:1037800001966FE170E00E940E2B5C0180932A028B
:10379000892B11F18FE1D82EDA1841E06D2D8CE7DD
:1037A0000E941F0841E06D2D8DE70E941F0841E037
:1037B0006D2D8EE70E941F08D3CF40E06D2D8C2D1C
:1037C0000E941F08D394FFE1DF12F7CFC3942FE7C5
:1037D000C21601F3D12CF1CF4CE7C42EFBCF26E269
:1037E00041EE61EEC7010E94961880915D028770DC
:1037F00059F0F7018581882339F080917F0282FF9B
:1038000003C082E00E94470B2496ECE00C94ED2A62
:1038100027E245EE65EEE6CF26E241EE60EEE2CF2E
:1038200027E245EE64EEDECF26E241EE62EEDACF2D
:1038300027E245EE66EED6CF28E241E0EBCFF70176
:103840008581882309F452C310927703C8019057E9
:10385000839708F035C384E090E00E94B72B9093E3
:103860007F0280937E02F801E150F047E232F105D9
:1038700020F4EC5EF34D0C94632B80917E0281600A
:1038800080937E0295C080917F02886080937F0242
:103890008FC080917E028260F3CF80917E0284602F
:1038A000EFCF80917E028860EBCF80917F028160B4
:1038B000EDCF80917F028260E9CF80917E028061AE
:1038C000DFCF80917E028062DBCF80917E028064B8
:1038D000D7CF0E94911480917E028068D1CF8091D1
:1038E0007E028C60CDCF80917F028360CFCF8091AC
:1038F0007E028E7FC5CF80917F02877FC7CF809168
:103900007E028D7FBDCF80917E028B7FB9CF80916B
:103910007E02877FB5CF80917F028E7FB7CF809167
:103920007F028D7FB3CF80917E028F7EA9CF809161
:103930007E028F7DA5CF80917E028F7BA1CF0E94DA
:10394000911480917E028F779BCF80917E02837F3E
:1039500097CF80917F028C7F99CF80917E0282FBEE
:10396000992790F921E0922790FB82F990FB83F947
:1039700087CF80917F02982F909591708E7F892BB1
:1039800090FB81F983CF90917E02892F8F7B96FFE8
:10399000806476CF0E94911490917E02892F97FBCC
:1039A00087F980586DCF61E08EE090E00E94CD2BCA
:1039B00060917E0270917F0284E090E00E94EB2B88
:1039C0000E94911412CF60E0EFCF90917E02892F78
:1039D0008F7E94FF806154CF90917E02892F8E7FDD
:1039E00090FF81604DCF90917F02892F877F93FF59
:1039F00088604CCF80912B0281110EC089E2E0E9F2
:103A0000F1E09191891303C0DF0111971C9221E02D
:103A1000E639F207B1F767C285E3F1CF81E00E9492
:103A20005E0B43E062E081E00E941A0BDECE81E093
:103A30000E943A0BF6CF82E0F2CF0B359CE71907D4
:103A400049F10C35ECE71E07D9F00A351C4709F09F
:103A500077C281E01CC00E9491142FEF34E34CE048
:103A6000215030404040E1F700C000000E94910723
:103A70006FEF7FEF90E080E00E94EB2B0E94B41785
:103A800080917F0282FB882780F991E089270E943C
:103A9000701056C280E0FBCFC8010E94B40AD82E35
:103AA0005EC2212F2F70D22E107F19F0D29490EF8A
:103AB000D922CC20B9F0DD2069F080E2800F883077
:103AC00010F0811009C080916702D82AD092670255
:103AD0000E944314802F43C080916602D82AD0925E
:103AE0006602F6CF802F0E94F017DD20D1F1005E34
:103AF000083010F0811004C08D2D0E946B0A06C0A2
:103B0000D09480916602D822D09266020E9443141B
:103B100028C0312F3F70D32E107F103219F0D2946D
:103B200080EFD822882059F041E0841609F48EC035
:103B3000CC2009F49AC0BB2009F447C0CBCF8091B8
:103B40007F0282FD3EC0CC20B1F1DD2039F08091B2
:103B50006702D82AD09267020E94431480E00E9434
:103B60002518492D4850550B4430510510F40E943A
:103B70001208AA20A9F080915D0280FD11C0F70112
:103B800015828695869586950E945E0BC7010E94D8
:103B9000CC1A80915D028695869586950E943A0B97
:103BA00020E0F70140815181628173818481958198
:103BB0000E94C50F29CE80E00E94F017DD2089F217
:103BC0009BCFCC2071F1B11004C08D2D0E94E6175F
:103BD000C8CF51E0B51211C010916A028D2D81231A
:103BE000D81609F4BECF0E94931190936902809376
:103BF0006802D12AD0926A02B4CF85E0B812B1CF60
:103C00008D2D0E94E6178D2D0E942E1480915A0250
:103C10009D2D9823D91609F4A4CFD82AD0925A0200
:103C2000A0CFB1100AC08D2D0E94DF178D2D0E94EC
:103C30002E148D2D0E94790A94CF91E0B91291CF64
:103C4000809167028D2109F48CCFEDCFCC2029F033
:103C5000E5E0EB1508F485CFB8CFF4E0FB1508F4E8
:103C600080CF8D2D0E94DF177CCFBB20D1F329E3BD
:103C7000821209C03FEF47EE53E0315040405040C0
:103C8000E1F700C00000802F0E94F0176ACF812F5B
:103C900086958695837061F0813009F062CFC80106
:103CA0009370C11002C080E090E00E94C80759CF15
:103CB000C8019370C11002C080E090E00E94ED073F
:103CC00050CF812F837089F5C1104BCF402F429583
:103CD00046954770440F440F802F8F70042E01C00B
:103CE000880F0A94EAF7202F207104FF07C02FE005
:103CF00030E001C0220F4A95EAF7209516951695F7
:103D00001370123069F050F430917C02113029F0B8
:103D1000822B83230E946A0B24CF832B822BFACF22
:103D2000282B80917C028227F5CF8695CC2011F03C
:103D3000812F8170882309F414CF402F4295469536
:103D40004770440F440F802F8F70042E01C0880FDE
:103D50000A94EAF7202F207104FF07C02FE030E01B
:103D600001C0220F4A95EAF7209516951695137013
:103D7000123069F050F430917D02113029F0822B1D
:103D800083230E94170BEDCE832B822BFACF282B97
:103D900080917D028227F5CF1F70CC2029F0812FE2
:103DA0000E945E0B802F12CF802F0E94DF17812F81
:103DB0000E943A0BD6CE802F92EF8916B1F198155A
:103DC00070F0E0EF8E16D1F0F1EF8F1691F0CC206D
:103DD00009F466C0B1107ECE812F8F712AC023EF07
:103DE000821651F134EF8312F2CF80917F0282FD6F
:103DF0002FC0812F8F71CC20D9F21BC0CC2081F035
:103E000044E04B1508F4ADCE1F7181E090E0012E27
:103E100001C0880F0A94EAF790917D028927B1CFFB
:103E200055E05B1508F49DCEEFCF812F8F71C11047
:103E3000BFCF0E945E0B95CE80E0CC2009F4A1CFCD
:103E40001F7181E0012E01C0880F0A94EAF799CF13
:103E5000CC20C9F080915D028770843041F40E94CB
:103E6000720A812F8F710E943A0BA12C7ACE84E0C6
:103E70008B15D8F31F71812F0E945E0B63E0812F99
:103E80000E949419F2CF94E09B1530F40E94720ABC
:103E900064E0812F8F71F4CF81E00E94470BE5CF62
:103EA000BB2059F0893309F0EECEEFEFF7EE23E0B7
:103EB000E150F0402040E1F7E4CE812F8F7178CFC0
:103EC0000631FCE71F0711F5809167028A7A91E0BD
:103ED00009F490E090932B0269E2811165E38EE88A
:103EE00091E00E94AE070E9443147FCC06312CE77C
:103EF000120709F47FCD07373CE7130709F497CD84
:103F000008374CE71407E1F482E092CD07375CE70D
:103F1000150709F483CD08378CE7180709F48BCD12
:103F200003303CE7130709F4A3CD08F086CD011553
:103F30005CE7150709F48FCD01301C4709F49ECDCD
:103F4000F701858100811181882309F4A5CDC8017D
:103F50000E94630FD82E682FC8010E94FC0AB80186
:103F60008D2D0E94350F0E9442098C01882EF70189
:103F7000C580B680B2943FE0B32280915D02877025
:103F8000F1F0AC2CCC20E1F0812F807F803451F017
:103F900080E2800F883098F0B11004C0812F807EBD
:103FA000803269F080917F0282FF09C082E00E9426
:103FB000470B80915D028770AA24A3948111A12CE4
:103FC000912E92942FE09222FBE0F91508F4C9CDCE
:103FD000E92DF0E0EA5CF34D0C94632BCF93DF9373
:103FE00080915902807F09F04DC08091580288234A
:103FF00009F448C0E091740350913B03C09154020E
:10400000D0915302609155027091560247E05E17BD
:10401000C9F18E2F90E0E49FF0011124E45CFC4F85
:104020002481222391F1489FF001499FF00D112432
:10403000DF01A45CBC4F11962C9111972C1325C065
:104040002C912D1322C015962C91159721111DC06E
:1040500012962D913C91261B370B25353105A8F47E
:10406000809159028F70806180935902EE5BFC4F02
:1040700080818F708061808383E592E00E94CC1AFA
:104080000E94830ADF91CF910895FC013196E77079
:10409000BECFA4E1B0E0EFE4F0E20C94D12A8C01B1
:1040A00086E0F801DE011F9601900D928A95E1F7F6
:1040B000F8018481E58093E5A92E92E0B92E9091D4
:1040C0005702911128C0882319F1EE20F1F0C801A0
:1040D0000E94A20FF82E8823C1F087E0F801D501D5
:1040E00001900D928A95E1F780915702813031F469
:1040F00080915302909154020E94950F0E94EE1FEE
:104100008F2D6496ECE00C94ED2AC8010E94CC1A25
:10411000FF24F394F5CFD080C18082809380F0900B
:1041200058022091550230915602A401421B530BB4
:10413000FF2009F4D9C04535510508F092C0882305
:10414000F9F29091540280915902282F207F09F0B2
:1041500056C0C91214C090915302D91210C0E11078
:1041600048C08F7080618093590283E592E00E947D
:10417000CC1A80915902F8018683F12CC1CFE1104D
:1041800038C06C2D8D2D0E9414066C2D8D2D0E9433
:104190001406E82E8111F1CFDF86C88A8F859889B1
:1041A0000E94950F292F22952F70243058F49F706C
:1041B000223088F0992399F0F8019681907F79F464
:1041C000FE2C9ECF2A5F2F70223068F0C8010E941B
:1041D000CC1AEF2CF5CF992311F0882389F3805E58
:1041E000883070F3F3CF803F58F3815F833070F7EE
:1041F000E7CF80915902816080935902BECFC912E6
:1042000007C090915302D91203C0EE2009F48DC06B
:10421000C8010E94A20F882309F477CFEE2009F489
:1042200074CF80915902803288F0209153023091EE
:104230005402398728879B868A86909157029C87EB
:104240001D868E87CE0108960E94CC1A87E0F80161
:10425000A3E5B2E001900D928A95E1F70E94EE1F6E
:1042600057CF90915902292F207F51F483E592E096
:104270000E94CC1A87E0F50111928A95E9F77DCF6B
:10428000882309F43DCF809154028C1110C0809195
:104290005302D8120CC0E1100AC09683C8010E94D4
:1042A000CC1A87E0F50111928A95E9F729CFC80168
:1042B0000E94A20F882309F428CFEE2009F425CF0D
:1042C00080915902803210F22091530230915402B1
:1042D0003A8329839C828B82909157029D831E8210
:1042E0008F83CE010196B0CF45355105D0F6882396
:1042F00009F40ECFFE2CEE2009F407CF8091540272
:104300008C1120C080915302D8121CC08091590298
:1043100080FD0FC0982F907F61F08683903F31F031
:10432000982F907F905F8F70892B8683C8010E94A1
:10433000CC1A87E0F801A3E5B2E001900D928A95CE
:10434000E1F7DECEC8010E94A20F81117FCF8091DC
:104350005902816080935902C8010E94CC1AD0CEC4
:10436000A6E0B0E0E6EBF1E20C94D92A0E949311AA
:104370008C0180916B0290916C028017910781F003
:1043800019821A820E949311682F49815A81792FCC
:1043900080E090E00E94AB1910936C0200936B02D6
:1043A0002696E4E00C94F52A1F921FB61F92112462
:1043B0008F939F93AF93BF9380911F03811113C07D
:1043C0008091200390912103A0912203B0912303B7
:1043D0004196A11DB11D8093200390932103A093CA
:1043E0002203B0932303BF91AF919F918F911F90B0
:1043F0001FBE1F901895CDB7DEB7C654D1090FB6B2
:10440000F894DEBF0FBECDBF85B7806885BF85B786
:10441000806885BF84B7877F84BF0FB6F894A8955E
:1044200080916000886180936000109260000FBEF0
:1044300080E890E00FB6F89480936100909361005B
:104440000FBE8BE598E090938D0180938C010E94C4
:1044500033060E94D4068091E20084608093E200DB
:104460007894809131038823A1F01091E9001F70A6
:104470009091EC00892F817090FD80E8182B1092AC
:10448000E9008091E80083FD0E94A7141F7010933B
:10449000E90082E084BD93E095BD9AEF97BD8093DB
:1044A0006E000E94EA0F811102C00E94BD0E82E0E0
:1044B0008093CE0243E751E0E1E78E2EE1E09E2EAD
:1044C000F5E7EF2EF1E0FF2E84019A0161E070E044
:1044D000D9018D919D01E82FE295EF70F0E0B1A038
:1044E0008F706B0101C0CC0C8A95EAF79C2D9095DA
:1044F0009B2191A382A18C2982A3F80181918F0134
:10450000E82FE295EF70F0E0B1A08F706B0101C071
:10451000CC0C8A95EAF79C2D90959B2191A382A1C2
:104520008C2982A3EA16FB0699F68FE891E00197A1
:10453000F1F700C000001091CE026FEC72E0FB01B9
:104540008E2F861B811708F4F3C0ADE5B1E021E69C
:1045500031E0AD0101E010E0FA018191AF01E82FF7
:10456000E295EF70F0E091A18F70B80101C0660F85
:104570008A95EAF7892F862B81A32417350761F7DF
:1045800061E070E09D91E92FE295EF70F0E042A1CB
:104590009F708B0102C0000F111F9A95E2F7C801AE
:1045A0008095842382A32A173B0761F7A7E5B1E032
:1045B0004DE551E061E070E08D91E82FE295EF70FC
:1045C000F0E011A18F709B0101C0220F8A95EAF7DC
:1045D000922F9095912391A382A1822B82A34A17B7
:1045E0005B0751F7E0E7F2E08CE792E0A6EDB2E07E
:1045F000119211921D921D928E179F07C9F790E09C
:1046000080E00E94B72B863E9E4F21F40E94EA0F65
:10461000811167C066EE7EEF90E080E00E94EB2B98
:1046200060E082E090E00E94CD2B60E083E090E0CB
:104630000E94CD2B10927C0260E074E184E090E057
:104640000E94EB2B60E086E090E00E94CD2B6FEFA4
:1046500087E090E00E94CD2B40E050E0BA0188E076
:1046600090E00E94DF2B60E084E290E00E94CD2B7E
:1046700060E087E190E00E94CD2B60E08CE090E06C
:104680000E94CD2B60E08DE090E00E94CD2B19823E
:104690001A821B821C821D821E821F82188648E09D
:1046A00050E068E170E0CE0101960E94BD2B40E031
:1046B00050E0BA0180E290E00E94DF2B80E00E948F
:1046C000A40E0E94BD0E40E050E0BA018FE090E0E1
:1046D0000E94DF2B40E050E0BA0183E190E00E94AD
:1046E000DF2B82E090E00E94AF2B8093800284E079
:1046F00090E00E94B72B90937F0280937E020E94ED
:104700006F132FEF36E781E0215030408040E1F712
:1047100000C000000E946F138091D60280FF31C05C
:104720006FEF7FEF90E080E00E94EB2B0E949107FB
:10473000DA012D91AD01822F82958F7090E0DC011E
:1047400090968C9190E02F7002C0959587952A9550
:10475000E2F78170D4019D914D01292F22952F7090
:1047600030E0D90190962C9130E09F7002C03595D1
:1047700027959A95E2F790E020FD92E0892B8193AE
:10478000DFCE83E090E00E94AF2B0E946A0B82E0B4
:1047900080930F0380E8809378030E94CB296BE01D
:1047A00070E087E591E00E9403108823E9F1809191
:1047B0000F0365E070E081FDC6C082E591E00E94D4
:1047C0000310882389F16DE070E080E491E00E949D
:1047D0000310882349F10E94A207605A75418F4F48
:1047E0009F4F609311037093120380931303909370
:1047F0001403EBE7F3E080E092E0DF018C011D920F
:1048000001501040E1F7F0938205E09381058FEFAE
:104810009FEF90937A038093790381E0809316034E
:10482000809315031092100380E091E090931C0395
:1048300080931B0378E1272E312C80913103853042
:1048400089F440E4D42E02EE12E050E1E52E62E15C
:10485000F62E80913103853009F478C00E949114BE
:104860000E9412080E946F1331E8A32E32E0B32E8B
:104870004DE852E0A6EDB2E0F501219131918D9124
:104880009D914E175F0709F49AC028173907A9F3BD
:1048900026ED822E22E0922E712CD4010D911D91D5
:1048A0004D01F501C190D1905F01C016D10609F408
:1048B00041C0C026D126612CEE24E394F12C55246E
:1048C0005394C6018E219F21892B51F122966FAE00
:1048D000229723967FAE23970E94931125969FAF30
:1048E0008EAF259726965FAE269791E098012E21F0
:1048F0003F21232B09F490E027969FAF279722961C
:104900004FAD229723965FAD239724966FAD2497E2
:1049100025967FAD259726968FAD26970E94AB19D9
:104920006394EE0CFF1CF0E16F12CBCFF5013297D0
:1049300011830083739406E07012AFCF0E94A20728
:104940009924939443C08DE491E039CF8091310351
:10495000843019F10E942D1010921F030FB6F894A5
:10496000A895209260000FBED092600083B7817F2F
:10497000846083BF83B7816083BF7894889583B751
:104980008E7F83BF0FB6F894A895809160008861F0
:1049900080936000109260000FBE809130038823E6
:1049A00009F457CF0E946F13E6EDF2E081919191E7
:1049B000892B09F0D2C40E171F07C1F74ACF281759
:1049C000390709F065CF0E94B021912CC090980260
:1049D000D09099020D2C000CEE08FF088091080180
:1049E00090E0E8E9F2E021E030E0329682179307A8
:1049F0000CF0D0C08091940290919502A091960203
:104A0000B09197026FB7F894409020035090210323
:104A100060902203709023036FBF481A590A6A0AF4
:104A20007B0A1091080129EC4216510461047104BB
:104A300014F18091930290E0019669E170E00E9488
:104A40000E2B80939302880F991FFC01E856FD4FAF
:104A500011821082812F183108F087E18F5F8093D7
:104A600008010E94A20760939402709395028093BC
:104A700096029093970232E0C316D104E104F10448
:104A80000CF495C0A0E6BAEEA70196010E94702B27
:104A90006B017C0188EC189F90011124032E000CFF
:104AA000440B550B240D351D461D571DA5E0B0E0E8
:104AB0000E94702B9B01AC01C701B6010E94222B02
:104AC00029013A0191EF49165104610471042CF057
:104AD000B0EF4B2E512C612C712C80918F02909154
:104AE0009002A0919102B09192022FB7F894C090D9
:104AF0002003D0902103E0902203F09023032FBFE6
:104B0000C81AD90AEA0AFB0AA5E6CA16D104E104C2
:104B1000F10484F00E94A20760938F0270939002C8
:104B200080939102909392028091E60280938E028C
:104B300040928D0210918E02A0918D02A11BBB0BA1
:104B4000A70196010E947B2B24E630E040E050E074
:104B50000E94442B120F1093E60210E000E062E086
:104B6000862E74E0A72EB12CEDEF7E2E6624639482
:104B7000FCEF5F2EA3E04A2E8091CE021817D8F0EA
:104B8000002309F4C0C00E94A2070E949F110E9446
:104B90004810BDC040815181052E000C660B770B7B
:104BA000C40ED51EE61EF71E2F5F3F4F1ECF412CB1
:104BB000512C320192CFE12EF12CF701ED58FE4F2E
:104BC0008081E82FE295EF70F0E0E0A1F0E08F70D7
:104BD00002C0F595E7958A95E2F7E170D701AF58E5
:104BE000BE4F2C91A22FA295AF70B0E090968C9101
:104BF00090E02F7002C0959587952A95E2F780FD89
:104C000080C080E08E2BD701A153BD4FEC919E2F29
:104C10009370891709F473C0EE0FEE0FE82BEC9335
:104C2000EF70F0E0EF59FE4F970124533D4F6901BB
:104C30008081D9019C91890F8C9320E084304CF1C4
:104C4000F701E653FD4F80818F5F80830E949311AF
:104C50001DAB5EAA682F8FAB98AF49AE6AAE412FED
:104C60005CEF792F83E091E00E94AB190E949311D1
:104C70001BAF5CAE682F8DAF9EAF4FAE21961FAEBF
:104C80002197412F5CEF792F83E090E00E94AB19D0
:104C900021E0F60180818D3F3CF5F701E653FD4FA1
:104CA0008081815080830E94931119A77AA6682F72
:104CB0008BA79CA78DA66EA6412F5DEF792F82E072
:104CC00091E00E94AB190E9493111FA778AA682F48
:104CD00089AB9AAB8BAA1CAA412F5DEF792F82E09A
:104CE00090E00E94AB1921E0D6018C91082E000CB7
:104CF000990BB5010E940E2BF6018083022B1F5FDA
:104D00003BCF82E07FCF0E949F11911040CF0E9445
:104D100012089091D102891721F08093D1020E944C
:104D2000A20780913103843009F087CD83E080931E
:104D3000E9008091E80082FF80CD8091E80090E05A
:104D400085FF05C00E945206882331F191E08091D1
:104D5000E8008B778093E800992309F46ECD0091E9
:104D6000E2021091E30289810115110591F18E3F54
:104D700009F0BBC08A81833020F08550833008F071
:104D8000B4C0EA81EE3008F0B0C0F0E0EE5BF34D65
:104D9000CE0101960C94632B00E210E09E012F5F80
:104DA0003F4F79018091E80085FD0AC08091E800BD
:104DB0008B778093E8000E945206882399F3C6CF30
:104DC0008091F100D7018D937D010150110951F7B8
:104DD000BDCF8C3009F4D3C078F5843009F4B6C067
:104DE00058F4823009F470C008F0A1C0813009F491
:104DF00067C08FEF898379C0863009F4BDC008F49D
:104E0000B0C08B30B1F78091170390911803892BB4
:104E100009F46BC040E250E0BE016F5F7F4F82E05B
:104E20000E94880D3FEF81EE94E031508040904029
:104E3000E1F700C000007ACC803109F4D3C0A0F5BE
:104E40008E3009F4A3C008F49DC08091170390919F
:104E50001803892B09F449C08C81E82EF12C0DE14F
:104E6000E016F10408F041C0CA80DB80DC24CD24C8
:104E7000DC248E010F5F1F4FE00EF11EC601875428
:104E80009E4FE016F10689F127E4C21622E0D20611
:104E900028F4D80114966C910E94CD2B0F5F1F4F00
:104EA000BFEFCB1ADB0AEACF823109F4A0C008F4C5
:104EB0009CC0833109F4C6C08E3F09F09ACF61CF00
:104EC0001A8289E08B8311C08A81823009F45BC227
:104ED0008330A1F0813009F08CCF0E94A2070E949C
:104EE000692B6B837C838D839E8340E250E0BE01FF
:104EF0006F5F7F4F82E00E94880D9FCC80911703E7
:104F000090911803892B89F3DE011196E6EDF2E00A
:104F100080819181329612969C93129713968C936E
:104F20001397129602E0E23EF00791F7DECF8A81F6
:104F3000823009F05ECF6B817C818D819E810E94E1
:104F4000692B88E290E00E94CD2BCFCF4C816B8102
:104F50008A810E94060F9827892798279E838D8330
:104F6000C4CF2D813E813227232732274C816B818C
:104F70008A810E941F0EB9CF0E94450EB6CF80E1F4
:104F80008A83B3CF82E08A8387E49CCF8C81E82E2A
:104F9000F12C1DE1E116F10408F0A7CFCA80DB80F7
:104FA000DC24CD24DC248E010F5F1F4FE00EF11EA8
:104FB000C60187549E4FE016F10609F496CF27E408
:104FC000C21622E0D20658F40E94AF2BD8011496E4
:104FD0008C93FFEFCF1ADF0A0F5F1F4FE9CFF80165
:104FE0001482F7CF0E94DE0D80CF82E0C9CF8C8182
:104FF000E82EF12CEDE1EE16F10408F076CFCA8030
:10500000DB80DC24CD24DC248E010F5F1F4FE00EFB
:10501000F11EC6018996E016F10609F466CFF0E8A4
:10502000CF16F1E0DF0658F40E94AF2BD80114969A
:105030008C93FFEFCF1ADF0A0F5F1F4FEACFF80103
:105040001482F7CFEC80F12C0DE1E016F10408F0AA
:105050004CCF0A811B81102701271027003821E03F
:10506000120708F042CF80E891E0801B910B8E156B
:105070009F0508F43ACF480139E2830E911C8091D4
:1050800017039091180338016E0C7F1C892BB9F51A
:10509000680181E0C822DD2400FF0DC0C8018896A8
:1050A0000E94AF2B9D8189279827892781159C47CE
:1050B00011F48FEF8D83570160FE17C0B1E0AB1A7A
:1050C000B10855E0452E512C4C0E5D1E4A0C5B1C60
:1050D000C4018E0D9F1D0E94AF2BF201908181159E
:1050E0009C4719F48FEFD2018C93E1E0F0E0EC0FD4
:1050F000FD1FEC0DFD1D2FEFCA14DB0428F09E01EF
:105100002F5F3F4F790119C09481858181159C479C
:1051100011F42483258332E0C30ED11C3296ECCFE8
:105120000038A1E01A0720F4F70164810E94CD2B1A
:10513000FFEFEF1AFF0A0F5F1F4FC8018996061590
:10514000170571F7D2CE28E0E2E1F1E0DE01919699
:1051500001900D922A95E1F720E2DC011D922A953B
:10516000E9F786E0898388E0FE01B196DE011596B5
:1051700001900D928A95E1F7B8CE80E5898382E0AF
:105180008A831B821C82B1CE0C81602F70E0762F47
:1051900066270B81060F172F111D012E000C220B05
:1051A000330B45E0000F111F221F331F4A95D1F723
:1051B000B901A801405E5F4F6F4F7F4F4017510705
:1051C0006207730708F491CE0035B2E01B07210592
:1051D000310508F08ACE4135E2E05E0761057105D0
:1051E00020F040E552E060E070E0401B510BB80158
:1051F0006E597E4F0E94922B78CE1B810C8140E02D
:10520000602F812F0E94CD0E9827892798279A8397
:10521000898341E0602F812F0E94CD0E9827892736
:1052200098279C838B8361CE2E813F813227232751
:1052300032272115FCE73F0741F480911703909135
:105240001803892B11F430E020E041E08D818111B9
:1052500001C040E06C818B810E94EE0D46CE4AE198
:1052600050E06FEF70E0CE0107960E94A82B80916E
:10527000170389830A831B821C8284E08D838EE05E
:105280008E8333CE81E090E09093E3028093E2023C
:1052900082E390E09093D5028093D4020E94931110
:1052A0009093D3028093D20220CE012B89F1F0900B
:1052B000D6020091DE021091DF028091D20290911D
:1052C000D3020E9484118536910558F116FB002700
:1052D00000F9002331F1F0FE24C00E949311909355
:1052E000D3028093D2028091D4029091D50201978B
:1052F0009093D5028093D402892B51F41092E3024B
:105300001092E20281E090E09093180380931703DB
:105310008091170389838091E2028A838091D4026D
:10532000D1CD82E390E09093D5028093D402F0CF68
:105330001092180310921703D8CD40E250E06FEF9F
:1053400070E00E94A82BD1CD2B812111CECD20E27F
:10535000DC011D922A95E9F7C8CDE9BCF9BC09B476
:1053600000FEFDCF8091D8008F7D8093D800809182
:10537000E00082608093E0008091E00081FDFCCF3E
:105380000E94911466CA88E290E00E94AF2B1B82B3
:105390001C821D8275CF1092B9008CE08093B800FA
:1053A0000895B0E0A0E0E7EDF9E20C94D22AB82E1F
:1053B000EB010E9493116C01EE24E394F12CC431B3
:1053C000D10560F025E0E22EF12CCF3FDC0731F073
:1053D000CE0164E170E00E94B72A7B0184EAA82E26
:1053E00094E8992E1092BC00A092BC000E949311E8
:1053F0008C018091BC0087FF0DC08091B900887F2F
:105400008830F9F08091B900887F8031D1F00FEFBA
:105410001FEF08C0C8010E948411E816F90648F77A
:105420000EEF1FEFCF3FDC07E9F2C6010E948411A7
:10543000C817D907B8F6C801CDB7DEB7EBE00C94B2
:10544000EE2AB092BB009092BC000E9493118C0196
:105450008091BC0087FF0AC08091B900887F8831A5
:1054600011F08034A1F610E000E0E5CFC8010E9401
:105470008411E816F90660F7D3CF0F931F93CF93EB
:10548000DF93EB018093BB0084E88093BC000E9413
:1054900093118C018091BC0087FF11C02091B9004D
:1054A000287F81E090E0283211F490E080E091952F
:1054B00081959109DF91CF911F910F910895CF3F71
:1054C000DC0741F3C8010E948411C817D90710F7FF
:1054D0008EEF9FEFEFCFB0E0A0E0E1E7FAE20C94AF
:1054E000D52A6B018A017901B9010E94D129E6010F
:1054F0000C0D1D1DC017D10711F097FF08C024E93E
:105500002093BC00CDB7DEB7E8E00C94F12AB701D8
:1055100089910E943D2AEECFB0E0A0E0E2E9FAE2F4
:105520000C94D52AC62F6A017901B8010E94D129AD
:1055300097FD0CC0B8018C2F0E943D2AE601EC0CAF
:10554000FD1CCE15DF0511F097FF08C024E920935C
:10555000BC00CDB7DEB7E8E00C94F12AB801899120
:105560000E943D2AEECF84E98093BC000895AA1BD7
:10557000BB1B51E107C0AA1FBB1FA617B70710F03E
:10558000A61BB70B881F991F5A95A9F78095909570
:10559000BC01CD0108952F923F924F925F926F927E
:1055A0007F928F929F92AF92BF92CF92DF92EF92B3
:1055B000FF920F931F93CF93DF93CDB7DEB7CA1B34
:1055C000DB0B0FB6F894DEBF0FBECDBF09942A885F
:1055D000398848885F846E847D848C849B84AA8407
:1055E000B984C884DF80EE80FD800C811B81AA8194
:1055F000B981CE0FD11D0FB6F894DEBF0FBECDBF5F
:10560000ED010895991B79E004C0991F961708F0E1
:10561000961B881F7A95C9F78095089597FB072EEA
:1056200016F4009407D077FD09D00E94B72A07FC32
:1056300005D03EF4909581959F4F089570956195A2
:105640007F4F0895A1E21A2EAA1BBB1BFD010DC0BE
:10565000AA1FBB1FEE1FFF1FA217B307E407F50722
:1056600020F0A21BB30BE40BF50B661F771F881FFE
:10567000991F1A9469F760957095809590959B0194
:10568000AC01BD01CF010895052E97FB1EF40094D7
:105690000E945B2B57FD07D00E94222B07FC03D0F2
:1056A0004EF40C945B2B50954095309521953F4FCF
:1056B0004F4F5F4F089590958095709561957F4FFE
:1056C0008F4F9F4F0895EE0FFF1F0590F491E02D2F
:1056D00009946927962769277827872778270895C7
:1056E0000E94832BA59F900DB49F900DA49F800DC9
:1056F000911D11240895B7FF0C94702B0E94702BFC
:10570000821B930B0895A29FB001B39FC001A39F7A
:10571000700D811D1124911DB29F700D811D1124EA
:10572000911D0895FB01DC0102C005900D924150CE
:105730005040D8F70895FB01DC0104C08D91019021
:10574000801921F441505040C8F7881B990B0895E7
:10575000DC0101C06D9341505040E0F70895F99984
:10576000FECF92BD81BDF89A992780B50895A8E132
:10577000B0E042E050E00C94F32BDC01A40FB51F25
:105780004150504048F0CB01840F951F2E910E944C
:10579000CE2B41505040D0F70895262FF999FECFD7
:1057A00092BD81BDF89A019700B4021639F01FBA74
:1057B00020BD0FB6F894FA9AF99A0FBE0895039691
:1057C000272F0E94CE2B0E94CD2B252F0E94CE2B5F
:1057D000242F0C94CE2B0196272F0E94CE2B0C94B5
:1057E000CD2BDC01CB01FC01F999FECF06C0F2BD47
:1057F000E1BDF89A319600B40D9241505040B8F78F
:105800000895F894FFCF8815B0155E17B0155E1790
:10581000E31504165E170D171A170C1C101CEF1B4E
:10582000081C141C181C1C1C771CEC1C7F1C491C1D
:105830004D1C831C511C871C931C5D1CE51C611CAA
:10584000971C651C9B1CC31C691C9F1CCA1C6F1CDD
:10585000A51CAD1C551C8B1C591C8F1C731CA91C32
:10586000B91CD31CE31C431C7B1CF31C511D511D94
:10587000891D891D471EB11DB11DB11D611ECC1EA4
:10588000DB1EDB1EA328BD28C428FD2814292F29D0
:105890004229552998299D29752775277527A429F7
:1058A0008E07CA0D8D07C30D01FF0021007F220066
:1058B0000301D827C9363D71F21357504D0081823C
:1058C00083E200E900EA00B500B600B700CD00832E
:1058D00001CC008A019201940121022302240225B5
:1058E00002260227022A02B300B4006F0070009F54
:1058F00001CB019F02A0029236323331F797C634B2
:105900003500FF0100010000FFFF0000010001FF62
:105910000094F466F50008101818100800402232B0
:0C5920000001DE00AC0058057105910587
:00000001FF
